:100000000C948C1A0C94B41A0C94B41A0C94B41A60
:100010000C94B41A0C94B41A0C94B41A0C94B41A28
:100020000C94B41A0C94B41A0C94B41A0C94B41A18
:100030000C94B41A0C94B41A0C94B41A0C94B41A08
:100040000C94B41A0C94B41A0C94B41A0C94B41AF8
:100050000C94B41A0C94B41A0C94B41A0C94372D52
:100060000C94B41A0C94B41A0C94B41A0C94B41AD8
:100070000C94B41A0C94B41A0C94B41A0C94B41AC8
:100080000C94A2230C94B41A0C94B41A0C94B41AC1
:100090000C94B41A0C94B41A0C94B41A0C94B41AA8
:1000A0000C94B41A0C94B41A0C94B41AE92B132CB3
:1000B000072C192C792B862B912B9D2B012C1F2C77
:1000C000A52BAE2BB62BCD2BD32B462BE32BDE2B28
:1000D000D82B000001000001000001000001FF0317
:1000E00004FF0304FE0506FE0506FF0708FF0708D8
:1000F000070D06070D060B0E040B0E040D10010E66
:100100001001121203131203151405151405161607
:10011000071718070A000900000200000200000289
:10012000000002000302000602000902000C0200A7
:100130000F0200120200140200000900000000007B
:100140000000000000000001030301030301050596
:1001500001050501070701070701000945120445CC
:100160001404451604451804451A04451C04451E8C
:10017000044520044522044524044526044528045A
:10018000452A04452C04452E0445300445320445D7
:1001900034044334014134013F34013D35013935E4
:1001A000013735013535013336013136012F36013E
:1001B0002D36012B36992C13042C15042C17042CE6
:1001C00019042C1B042C1D042C1F042C21042C238B
:1001D000042C25042C27042C29042C2B042C2D045E
:1001E0002C2F042C31042C33042C35012C370129FD
:1001F00037012737012537012337011F38011D3803
:10020000011B3801193801173801153999121304E7
:10021000121504121704121904121B04121D0412E1
:100220001F04122104122304122504122704122988
:1002300004122B04122D04122F0412310412330461
:100240001235041237041239011139010F39010D29
:1002500039010B3A01093A01073A01053A01033A1B
:1002600001013B01FF3D01FF3F01FF4101FF430150
:10027000FF4501FF4701FF4901FF4B01FF4D01FF12
:100280004F01FF5101FF5301015302035302055374
:10029000020753020954020B54020D54020F540278
:1002A0001154021355021555021755021955021B18
:1002B00055021D56021F560221560223560225568C
:1002C000022757022957022B57022D57022F570298
:1002D0003158023358023558023758023958023B18
:1002E00059023D59023F5902415902435902455AA8
:1002F00002475A02495A024B5A024D5A024F5B02B8
:10030000515B02535B02555B02575B02595C025B17
:100310005C025D5C025F5C02615C02635D02645EC4
:1003200002655F02656102656302656502656702D9
:10033000656902656B02656D02656F026571026534
:1003400073026373016173015F73015D74015B7418
:1003500001597401577401557401537501517501A8
:100360004F75014D75014B75014976014776014581
:1003700076014376014176013F77013D77013B7776
:100380000139770137770135780133780131780108
:100390002F78012D78012B79012979012779012501
:1003A0007901237901217A011F7A011D7A011B7AD3
:1003B00001197A01177B01157B01137B01117B0168
:1003C0000F7B010D7C010B7C01097C01077C010581
:1003D0007C01037D01017E01018001018201018414
:1003E00001018601018801018A01018C01000004DC
:1003F0007F4A027D4A027B4A02794A02774A0275A5
:100400004A02734A02714A026F4A026D49026B49FD
:100410000269490267490265490063490061490070
:100420005F49005D49005B49005949005748005544
:1004300048025348025148024F48024D48024B4877
:1004400002494802474802454801434701414701E4
:100450003F47013D47013B470139470137470135D8
:1004600047023347023147022F46022D46022B46F0
:10047000022946022746022546002346002146005F
:100480001F46001D46001B45001945001745001575
:1004900045021345021145020F45020D45020B4569
:1004A00002094502074402054401034401014401D5
:1004B000FF4401FD4401FB4401F94401F74401F507
:1004C0004401F34302F14302EF4302ED4302EB43E5
:1004D0000200000288011400AF00140000802C000C
:1004E0003200210032003700320000801003320059
:1004F000930232000B023200700332005D013200C1
:1005000026013200EE0132000080DC003200B8012A
:100510003200700332000080E402F201000090001B
:10052000E402220000004800E4022200000048002B
:10053000E402B10000006C00E40269000000240045
:10054000E4024600000048003F0369000000240068
:10055000A403690000002400DC030A040000FB007F
:10056000DC03690000002400550446000000480038
:10057000DD0446000000480075055D02000024000F
:1005800075052200000048007505220000004800A3
:10059000750522000000B3005504B10000002400DE
:1005A0007505460000004800C805750000001800E9
:1005B0007D06690000002400C80569060080AF00C0
:1005C00014008801140000801003320093023200EE
:1005D0000B023200700332005D013200260132004E
:1005E000EE013200C4003200A50032008300320068
:1005F000DC00320057003200490032007B0032003C
:100600007B003200000014007B0032000000140068
:100610007B0032000080D5F08D14A1C881CFD9F1C4
:10062000AF2000FCFEFFFFFFFFFFFFFFFFFFFFFF0C
:10063000FFFFFFFFFFFFFFFFFFFFFEFEFC070F1F97
:100640001F1F1F1F1F1F1F1F1F1F1F1F1F1F1F1FBA
:100650001F1F1F1F1F1F0F1A0D00FC02FAFAAAAA64
:1006600002F2FA2AF202B2BAEA6A021AFAE21A02AA
:10067000FC00000007080A0A0A0A080A0A090A0810
:100680000A0A0A0908080A0A080807000000FC020A
:10069000FAFA22FA02F2FA2AF202FAFA2AD202FA52
:1006A000FA8AF202FC00000007080A0A090A080A8E
:1006B0000A090A080A0A090A080A0A0A0A080700AF
:1006C00000FCFCFCFCFCFCFCFCFCFCFCFCFCFCFC66
:1006D000FCFCFFFFFFFFFFFFFFFFFFFFFFFFFFFE31
:1006E000FCF8010101010101010101010101010108
:1006F0000101010101010103070F0F0F0F0F0F0F80
:10070000070301210C000078281000782850007899
:10071000580010482000104820000078FC8ED6DADF
:10072000D68EFC78000000000000000000000000F1
:1007300000000000000000000000000001020505AC
:10074000050505020100000408022905023E090909
:100750003E3F25251A1E2121123F21211E3F25251E
:10076000213F0505011E21293A3F04043F213F2175
:10077000001021211F3F040A313F2020203F0202A8
:100780003F3F02043F1E21211E3F0909061E211181
:100790002E3F09093622252519013F01011F20207E
:1007A0001F0F10201F3F10103F3B04043B03043871
:1007B00007312D23211E29251E223F200032292901
:1007C000261221251A0C0A3F08172525191E252552
:1007D00018013905031A25251A0629291EFCFEFFD2
:1007E000FFFFFFFFFFFFFFFFFFFFFFFFFFFFFFFF19
:1007F000FFFFFFFFFFFFFFFFFFFFFFFFFFFFFFFF09
:10080000FFFFFFFFFFFFFFFFFFFFFFFFFFFFFFFFF8
:10081000FFFFFFFFFFFFFFFFFFFFFFFFFFFFFFFFE8
:10082000FFFFFFFFFFFFFFFFFFFFFFFFFFFFFFFFD8
:10083000FFFEFEFCFFFFFFFFFFFFFFFFFFFFFFFFCD
:10084000FFFFFFFFFFFFFFFFFFFFFFFFFFFFFFFFB8
:10085000FFFFFFFFFFFFFFFFFFFFFFFFFFFFFFFFA8
:10086000FFFFFFFFFFFFFFFFFFFFFFFFFFFFFFFF98
:10087000FFFFFFFFFFFFFFFFFFFFFFFFFFFFFFFF88
:10088000FFFFFFFFFFFFFFFFFFFFFF01030707075A
:1008900007070707070707070707070707070707E8
:1008A00007070707070707070707070707070707D8
:1008B00007070707070707070707070707070707C8
:1008C00007070707070707070707070707070707B8
:1008D00007070707070707070707070707070707A8
:1008E0000703571300FC0202F2F2F282F2F2F20264
:1008F000F2F2F202C2E2F2121252624202F2F2F298
:1009000082F2F2F20202E2F29292122202C2E2F2C7
:10091000321212722202C2E2F2125212F2E2C20247
:10092000F2F2F21212F2F2E202F2F2F292921202F7
:10093000E2F2929212220202FC000000FF00005F2D
:100940005F5F005F5F5F005F5F5F00172F5F505169
:100950005F2F5F005F5F5F005F5F5F002C5C515146
:10096000535F2E00172F5F585050582E00172F5FDF
:100970005050505F2F17005F5F5F01015F5E5800AE
:100980005F5F5F5052500C5C5151535F2E0000FF6F
:10099000000000010202020202020202020202023E
:1009A0000202020202020202020202020202020227
:1009B0000202020202020202020202020202020217
:1009C0000202020202020202020202020202020207
:1009D00002020202020202020202020202020202F7
:1009E000020202020202010000FFFFFFFFFFFFFF01
:1009F000FFFFFFFFFFFFFFFFFFFFFFFFFFFFFFFF07
:100A0000FFFFFFFFFFFFFFFFFFFFFFFFFFFFFFFFF6
:100A1000FFFFFFFFFFFFFFFFFFFFFFFFFFFFFFFFE6
:100A2000FFFFFFFFFFFFFFFFFFFFFFFFFFFFFFFFD6
:100A3000FFFFFFFFFFFFFFFFFFFFFFFFFFFFFFFFC6
:100A4000FFFFFFFFFFFFFFFFFFFFFFFFFFFFFFFFB6
:100A5000FFFFFFFFFFFFFFFFFFFFFFFFFFFFFFFFA6
:100A6000FFFFFFFFFFFFFFFFFFFFFFFFFFFFFFFF96
:100A7000FFFFFFFFFFFFFFFFFFFFFFFFFFFFFFFF86
:100A8000FFFFFFFFFFFFFFFFFFFFFFFFFFFFFFFF76
:100A9000FFFFFFFFFFFFFFFFFFFFFFFFFFFFFFFF66
:100AA000FFFFFFFFFFFFFFFFFFFFFFFFFFFFFFFF56
:100AB000FFFFFFFFFFFFFFFFFFFFFFFFFFFFFFFF46
:100AC000FFFFFFFFFFFFFFFFFFFFFFFFFFFFFFFF36
:100AD000FFFFFFFFFFFFFFFFFFFFFFFFFFFFFFFF26
:100AE000FFFFFFFFFFFFFFFFFFFFFFFFFFFFFFFF16
:100AF000FFFFFFFFFFFFFFFFFFFFFFFFFFFFFFFF06
:100B0000FFFFFFFFFFFFFFFFFF03030303030303D9
:100B100003030303030303030303030303030303A5
:100B20000303030303030303030303030303030395
:100B30000303030303030303030303030303030385
:100B40000303030303030303030303030303030375
:100B500003482200FC060202020202020202020212
:100B60000202020202020202020202020202020265
:100B70000202020202020202020202020202020255
:100B80000202020202020202020202020202020245
:100B9000020202020202020206FC0000FF00000044
:100BA0000000000000000000000000000000000045
:100BB0000000000000000000000000000000000035
:100BC0000000000000000000000000000000000025
:100BD0000000000000000000000000000000000015
:100BE00000FF0000FF000000000000000000000007
:100BF00000000000000000000000000000000000F5
:100C000000000000000000000000000000000000E4
:100C100000000000000000000000000000000000D4
:100C2000000000000000000000FF0000FF80000046
:100C300000000000000000000000000000000000B4
:100C400000000000000000000000000000000000A4
:100C50000000000000000000000000000000000094
:100C60000000000000000000000000000000000084
:100C700080FF0000000101010101010101010101EA
:100C80000101010101010101010101010101010154
:100C90000101010101010101010101010101010144
:100CA0000101010101010101010101010101010134
:100CB00001010101010101010100000B08878F9D65
:100CC000B7E7C7A5D7AF978D000000000000000070
:100CD000000306090C0F1214F8FCFEFFFFFFFFFFD4
:100CE000FFFFFFFFFFFFFFFFFFFFFFFFFFFFFFFF14
:100CF000FFFFFFFFFFFFFFFFFFFFFFFFFFFFFFFF04
:100D0000FFFFFFFFFFFFFEFCF8FFFFFFFFFFFFFFFE
:100D1000FFFFFFFFFFFFFFFFFFFFFFFFFFFFFFFFE3
:100D2000FFFFFFFFFFFFFFFFFFFFFFFFFFFFFFFFD3
:100D3000FFFFFFFFFFFFFFFFFFFF000103070707A4
:100D40000707070707070707070707070707070733
:100D50000707070707070707070707070707070723
:100D60000707070707070707030100311300F80407
:100D70000202F2F2F21212F2F2E20202E2F2F2C223
:100D8000020202F2F2F2020202F20202E2F2929293
:100D9000122202F2F2F2929212020204F80000FF12
:100DA0000000005F5F5F0105050502580714140786
:100DB0005F5E50002F5F5F5050502F002C545151F8
:100DC000535F2E005F5F5F505250000000FF000035
:100DD00000010202020202020202020202020202F6
:100DE00002020202020202020202020202020202E3
:100DF00002020202020202020202020202010000D8
:100E0000F8FCFEFFFFFFFFFFFFFFFFFFFFFFFFFFFD
:100E1000FFFFFFFFFFFFFFFFFFFFFFFFFFFFFFFFE2
:100E2000FFFFFFFFFFFFFFFFFFFFFFFFFFFFFFFFD2
:100E3000FFFFFFFFFFFFFFFFFFFFFFFFFFFFFFFFC2
:100E4000FFFFFFFFFFFFFFFFFEFCF8FFFFFFFFFFBD
:100E5000FFFFFFFFFFFFFFFFFFFFFFFFFFFFFFFFA2
:100E6000FFFFFFFFFFFFFFFFFFFFFFFFFFFFFFFF92
:100E7000FFFFFFFFFFFFFFFFFFFFFFFFFFFFFFFF82
:100E8000FFFFFFFFFFFFFFFFFFFFFFFFFFFFFFFF72
:100E9000FFFFFFFFFFFF0001030707070707070723
:100EA00007070707070707070707070707070707D2
:100EB00007070707070707070707070707070707C2
:100EC00007070707070707070707070707070707B2
:100ED00007070707070707070707070707070301AC
:100EE000004B1300F804C2E2F212125262420202F4
:100EF00002E2F2F2C2020202F2F2F202C2F2F2F2F2
:100F00000202F2F2F29292120202C2E2F2125212C1
:100F1000F2E2C232F2F2820282721202F2F2F29231
:100F2000921202F2F2F21212F2F2E204F80000FF60
:100F300000172F5F50515F2F5F0058071414075F91
:100F40005E50005F015F5E015F5F5F00005F5F5F9B
:100F50005052500000172F5F5050505F2F17000362
:100F60005F5F58070000005F5F5F505250005F5F97
:100F70005F01015F5E5800FF0000000102020202F3
:100F80000202020202020202020202020202020241
:100F90000202020202020202020202020202020231
:100FA0000202020202020202020202020202020221
:100FB0000202020202020202020202020202020211
:100FC0000201000002020303040406090F060A0FCF
:100FD0000F08090D0F0A090B0F0F03020F0F070D62
:100FE0000D0D0F0A0E0E010D0F030E0B0B0F070553
:100FF0000F0FFCFEFFFFFFFFFFFFFFFFFFFFFFFFE5
:10100000FFFFFFFFFFFFFFFFFFFFFFFFFFFFFFFFF0
:10101000FFFEFC00010303030303030303030303B5
:101020000303030303030303030303030303030390
:1010300003030100210A00FC020202020202020272
:101040000202020202020202020202020202020280
:101050000202020202FC0000000101010101010183
:101060000101010101010101010101010101010170
:101070000101010101010000090D000404FCFEFE54
:10108000000000000A0A0B0B0B0A0A00001C82C2B7
:10109000E27E3E1C00000B0B0B0B0B0B0B000080C9
:1010A000863232FEFECC0000050A0A0A0B0B050050
:1010B000F8FCFEFFFFFFFFFFFFFFFFFFFFFFFFFF4B
:1010C000FFFFFFFFFFFFFFFFFFFFFFFFFFFFFFFF30
:1010D000FFFFFFFFFFFFFFFFFFFFFFFFFFFFFFFF20
:1010E000FFFFFFFFFFFFFFFFFFFFFFFFFFFFFFFF10
:1010F000FFFFFFFFFFFEFCF8FFFFFFFFFFFFFFFF0B
:10110000FFFFFFFFFFFFFFFFFFFFFFFFFFFFFFFFEF
:10111000FFFFFFFFFFFFFFFFFFFFFFFFFFFFFFFFDF
:10112000FFFFFFFFFFFFFFFFFFFFFFFFFFFFFFFFCF
:10113000FFFFFFFFFFFFFFFFFFFFFFFFFFFFFFFFBF
:101140000001030707070707070707070707070740
:10115000070707070707070707070707070707071F
:10116000070707070707070707070707070707070F
:1011700007070707070707070707070707070707FF
:101180000707070707030100481300F804020202DB
:101190000202020202020202F2F2F202020202F26F
:1011A000F2F20232F2F2820282721202F2F2F2924F
:1011B000921202E2F292921222020202020202024F
:1011C00002020202020202020202020202020204FD
:1011D000F80000FF00000000000000000000000018
:1011E0005F5F5F505050005F5F5F0000035F5F58BC
:1011F000070000005F5F5F5050500C545151535F27
:101200002E000000000000000000000000000000B0
:101210000000000000000000FF00000001020202C8
:10122000020202020202020202020202020202029E
:10123000020202020202020202020202020202028E
:10124000020202020202020202020202020202027E
:10125000020202020202020202020202020202016F
:10126000000040E8FCFCFCFCFCDCBBFFFDFFFBB825
:1012700070F0F0F0F07020000000000000000001AD
:101280000101010101030303030303010000002026
:1012900070F0F0F0F070BBFFFDFFFBB8DCFCFCFC75
:1012A000FCFCE84000000103030303030301010108
:1012B0000101010000000000000090F8F8F8F8F8C3
:1012C000F8F8FBFFFFFFFBF8F8F8F8F8F8F8F890EB
:1012D00000010101010101010101010101010101FF
:1012E000010101010100160A004048586858488869
:1012F00090B3D5B390102060A060202000000000C3
:1013000000000000000000000000000101010101D8
:10131000010000000000202060A060201093B5D3E1
:10132000B09088485868584840000000000101010A
:1013300001010100000000000000000000000000AA
:10134000009090B0D0B0909090B3D5B3909090B002
:10135000D0B090909000000000000000000000005D
:101360000000000000000000000000001414000055
:1013700000C03804C2796551516579C20438C00093
:10138000000038C40213E4E9A2D735E5E535D7A259
:10139000E9E41302C438000C050A08090D0A01012A
:1013A00001010A0D09080A050C0000000000C03800
:1013B00044DAE5F9C5338A748870800000000000C3
:1013C0000043249B070697337938101000800106EC
:1013D00008F000060D0F07000809060D0F070008AA
:1013E000060908000E01000000807088748A33C569
:1013F000F9E5DA4438C000000000F008060180007A
:1014000010103879339706079B2443000000010E23
:10141000000809060800070F0D06090800070F0D50
:101420000600C03008087CF4C21D2B416B412B9E86
:10143000C47C080830C00738C012C4E8E2F7F5657C
:1014400065F5F7E2E8C412C03807000C050A080980
:101450000D0B010101010B0D09080A050C0000002C
:1014600000C0380402D9A511B115A1C20438C000CA
:10147000000078848203CFCFECF1E26466E4F2E905
:10148000CCC703828478000C050A08090D0B010102
:1014900001010B0D09080A050C00000000C038040A
:1014A000C2796551516579C20438C0000000708866
:1014B0008403C4D982385482D682543881C40384C8
:1014C0008870000C050A08090D0B020000020A0DC5
:1014D00009080A050C00000000C03804C2796551F3
:1014E000516579C20438C000000038C40213E4E931
:1014F000229745256525478229E41302C438000C4C
:10150000050A0809080305080D08050308080A0567
:101510000C0000000000C020109010C8A42272CA65
:10152000AA4A02E408F000186488473079FEFC718A
:1015300032254A2C098771080403000000000002CC
:101540000504080A05010101010000000000E81877
:101550002090C8C8C424844830A020204040408047
:101560000000C38142BDDB5ABD66007EC37E81FFA1
:10157000665A4224817E070804090B0B0B0C090AEA
:101580000C0504040202020100000ADFFFFFFFFF56
:101590006F040607070706006FFFFFFFFFDF0A0063
:1015A000060707070604FFFFFFFFFFFFE60002072D
:1015B00007070600E6FFFFFFFFFFFF00060707071C
:1015C00002001FFFFFFFFFFF66000207070706007C
:1015D00066FFFFFFFFFF1F000607070702001FFF50
:1015E000FFFFFFFF260406070707060026FFFFFF91
:1015F000FFFF1F000607070706041FFFFFFFFFFF8F
:10160000660006070707020066FFFFFFFFFF1F00D7
:10161000020707070600FFFFFFFFFFFFE6040607BC
:1016200007070702E6FFFFFFFFFFFF0207070707A5
:101630000604E2FFFFFFFFFF3A000607070702006C
:101640003AFFFFFFFFFFE20002070707060056FE12
:10165000FEFFFFFFDE0000050F1F0F1DDEFFFFFF77
:10166000FEFE561D0F1F0F0500000A0D00004094DE
:10167000BCB6FAD68C400000000000050905080041
:1016800000FE4094BCB6FAD68C401007000000055E
:10169000090508000E0D000018ACF46C78A80000D5
:1016A000000000000008060B070101000000000018
:1016B00000000000000080C0C0A070E040000000FA
:1016C00000000A0A0703050305000100000000806E
:1016D000008000808080008040C080000000040204
:1016E00000030709070F050E0300070B000ADEFBC6
:1016F0009D6B0600040204060000066B9DFBDE0ADB
:1017000000000006040204004A1EDBFDEB26400038
:101710000002040600004026EBFDDB1E4A00000626
:10172000040200000A1EDBFDEB660000000200065A
:1017300000000066EBFDDB1E0A0000060002000050
:101740000A1EDBFDAB260000040200060000002696
:10175000ABFDDB1E0A000006000204000A1EDBFDD2
:10176000EB6600000006000200000066EBFDDB1ED9
:101770000A000002000600004A1EDBFDEB264000C6
:101780000402000202004026EBFDDB1E4A000202BA
:10179000000204004022EBFBEB22100000060002D6
:1017A00000001022EBFBEB224000000200060000CC
:1017B00054BCB6FAD60C00000005090508000CD68A
:1017C000FAB6BC540008050905000000387CFEFF8D
:1017D000FFFFFE7C38000000010101000000090944
:1017E00000385482D6825438000000000000000007
:1017F000000000384CC292866438000000000000EF
:10180000000000000038648692C24C3800000000DE
:101810000000000000000002040608090A0A0B0B81
:101820000C0C0C0D0D0D0D0D0D0D0D0D0D0D0D0CEC
:101830000C0C0B0B0A0908060402000B794A01186C
:101840000D794A001C0F794A000C117849000C13DD
:101850007849000C157849000C177849000C197864
:1018600049000C1B7748000C1D7748000C1F774877
:10187000000C217748000C237748000C25764700A0
:101880000C277647000C297647000C2B7647000C76
:101890002D7647000C2F7546000C317546000C3331
:1018A0007546000C357546000C377546000C3974CA
:1018B00045000C3B7445000C3D7445000C3F7445DD
:1018C000001C417445001C437343001C45734300D6
:1018D0001C477343000C497343000C4B7343000CCB
:1018E0004D7242000C4F7242000C517242000C5378
:1018F0007242000C557242000C577141000C597134
:1019000041000C5B7141000D5D714100055D6F3F51
:101910000C035D6D3D0C035D6B3B0D035D69390D83
:10192000035D67370C035D65350C035D63330D03A1
:101930005D61310D035D5F2F0C035D5D2D0C035D5B
:101940005B2B0D035D592900465B5929004E595800
:1019500028004C575828004C555828004C535828FC
:10196000004C515828004C4F5727004C4D5727002A
:101970005C4B5727005C495727005C475727005CA2
:10198000455626005C435626005C415626005C3FC7
:101990005626005C3D5626005C3B5525005C3955BB
:1019A00025005C375525005C355525005C335525F1
:1019B000005C315424005C2F5424005C2D5424001E
:1019C0004C2B5424004C295424004C275323004C06
:1019D000255323004C235323004C215323004C1F39
:1019E0005323004C1D5222004C1B5222004C195212
:1019F00022004C175222004C155222004C13512148
:101A0000004C115121004C0F5121004C0D5121006F
:101A10004D0B512100490B4F1F0C030B4D1D0C03A7
:101A20000B4B1B0D030B49190D030B47170C030B35
:101A300045150C030B43130D030B41110D030B3F15
:101A40000F0C030B3D0D0C030B3B0B0D030B390966
:101A50000D030B37070C030B35050C030B33030D7C
:101A6000030B31010D030B2F000C030B2D000C0396
:101A70000B2B000D030B29000D030B27000C030D8E
:101A80002400002A0D2400000E0F2400000C112455
:101A900000000C132400000C152400000C17240077
:101AA000000C192400000C1B2400000C1D24000055
:101AB0000C1F2400000C212400000C232400000C27
:101AC000252400000C272400000C292400000C2BE6
:101AD0002400000C2D2400000C2F2400000C3124C5
:101AE00000000C332400000C352400000C372400C7
:101AF000000C392400000C3B2400000C3D240000A5
:101B00000C3F2400000C412400000C432400000C76
:101B1000452400000C472400000C492400008C4B95
:101B20002400008C4D21000B044F1F000B0C511E94
:101B3000000B0C531D000B0C551D000F00551D0014
:101B40000F00551D000F00551D000F00551D000F03
:101B500000551D000F00551D000F005F15000F0000
:101B60005F15000F005B150013005B150013005F8D
:101B7000170014005F1700140064190014006419A2
:101B80000014006419001400581D011400581D02AF
:101B90001400581D031400542A041400542A051478
:101BA00000542A0614005832071400583208140052
:101BB0005832091400593409000059340901005BF6
:101BC000340903005D340905005F340907006134FE
:101BD0000909006334090300653409050067340905
:101BE000070069340909006B340903006D340905E5
:101BF000006F3409070071340909007334090300C8
:101C00007534090500773409070079340909007B28
:101C1000340903007D340905007F3409070081344D
:101C2000090700551E000B00571F010B005B210325
:101C30000B005D23050B005F26080B0061290B0BD1
:101C400000632C0E0B006530120B0067331510007B
:101C500069331511006933151200693315120069D3
:101C600033151200693315120069331512006933F8
:101C7000151200693315120069331512004D240046
:101C80000B004F24000B005124000B005325000BC8
:101C9000005525000B005725010B005B26030B00A8
:101CA0005D26050B005F27080B0061280B0B006306
:101CB000290E0B00652B120B00672E1510006933DF
:101CC00015110069331512006933151200693315B7
:101CD00012006933151200693315120069331512A9
:101CE0000069331512006933151200C73409010069
:101CF00063340901006334090000633409000061A2
:101D0000330902005F310904005D2E0906005B2CD7
:101D1000090800592A090200572809040055260914
:101D20000600532409080051220902004F2109042A
:101D3000004D220906004B2409080049240902002D
:101D400047240904004524090600432409080041EA
:101D5000240902003F240904003D240906003B2415
:101D60000908003924090200372409040035240930
:101D70000600332409080031240902002F24090435
:101D8000002D240906002B2409080029240902003B
:101D9000272409040025240906002324090800211A
:101DA000240902001F240904001D240906001B2227
:101DB0000908001920090200171E080400151C0755
:101DC0000600131A0608001118050A000F16040A67
:101DD000000F14030A000F13020A000F11010A007A
:101DE0000D0F000A000B0E000200090E0004000790
:101DF0000E000600050E000800030E000200030E90
:101E0000000C00030E000C00030E000D00030E007A
:101E10000D00030E000C00030E000C00030E000D5D
:101E200000030E000D00030E000C00030E000C005A
:101E3000030E000D00030E000D00030E000C000346
:101E40000E000200010E000400FF0E000600FD0E51
:101E5000000800FB0E000200F90E000400F70E005F
:101E60000600F50E0008007924000004FFFFFFFFC4
:101E7000FFFFFFFFFFFFFFFFFFFFFFFFFF0000006F
:101E8000000000000000F0F8F0F0F0F0F0F8F014BE
:101E9000020303000303030003030300030303001F
:101EA00003030300030707000707070007070700EE
:101EB000070707000707070007FFFFFFFCFCFCFC04
:101EC000FCFFFFFFFFFFFFFFFFFFFFFFFFFFFF071D
:101ED000070701010101010707070705000A1E1B8B
:101EE0001D0B061108007C544400781478004854F7
:101EF00024000C700C00007C107C00781478007CAE
:101F00001468007C44380009100000000000000044
:101F10000000F008D0D010101008F00C140042108F
:101F200000004410004008010020D089A8A8A8A9FA
:101F300088B08CD3200002050B0F0A0A0A0A05029A
:101F40000000882000000842000044100220D088D1
:101F5000A8A8A9A888B08CD3200002050B0F0A0AF4
:101F60000A0A050200008200104400001042000826
:101F70000020D088A9A8A8A889B08CD32000020589
:101F80000B0F0A0A0A0A0502000042100000441062
:101F90000000084100408091285060115860B180D5
:101FA00040000103070F0F0F0F07030100008820F7
:101FB0000000084200004410024080902850611048
:101FC0005860B08140000103070F0F0F0F07030196
:101FD00000004108000010440000104200408091C1
:101FE000285061105860B18040000103070F0F0FA7
:101FF0000F07030100000000000080408000000087
:1020000000008040582E2F2F96954A800003040A26
:102010000A0D0D0D0E0E0B05030910000048B0CC83
:10202000B0420000F008DFDB151B1F08F000008045
:10203000E862C0D00000F008DFD41B141F08F000D5
:102040000080E872C0D00000F008DFD41B141F0825
:10205000F0000002B058A4F00000F008DFDF151E09
:102060001F08F0091B0000805C7B5C000000060973
:1020700010202020100800000000000000000000D8
:102080000000000000000000000000805C7B5C009D
:10209000000006C91020202010080000FF000000EA
:1020A00000000000040100000000000000000080AB
:1020B0005C7B5C00000006C910A020201008000016
:1020C000FF00FF0000000000040104010000000008
:1020D000000000805C7B5C00000006C910A020A00E
:1020E00010080000FF00FF00FF00000004010401D1
:1020F00004010000000000805C7B5C00000006C959
:1021000010A020A010C80000FF00FF00FF00FF008B
:10211000040104010401040100253800000000004E
:1021200000000000000000000000000000804018D7
:10213000B4BC180008D0B02040808000000000002F
:1021400000000000000000000000006090904A04C1
:1021500008010000000003070C3973E898141415F7
:10216000D3D6140C1800000000000000000000008E
:10217000000000000000000000000000000000005F
:102180000103071C38F3CD940A0A00000000000088
:10219000000000000000000000000000000000003F
:1021A000000000000000000000000001030F1E00FE
:1021B000000000000000000000000000000000001F
:1021C000000000000000000000000000000000000F
:1021D00000000000000000000000000000000000FF
:1021E00000000000000000000000000000000000EF
:1021F00000000000000000000000000000000000DF
:1022000000000000000000000000000000000000CE
:1022100000000000000000000000000000000000BE
:1022200000000000000000000000000000000000AE
:1022300000009834BC180008D0B020408080000016
:10224000000000000000000000000000000000008E
:1022500000008084681026010003070C3973E89899
:10226000141415D3D6140C18000000000000000050
:102270000000000000000304040200000000000051
:102280000000000103071C38F3CD940A0A00000087
:10229000000000000000000000000000000000003E
:1022A000000000000000000000000000000001032A
:1022B0000F1E0000000000000000000000000000F1
:1022C000000000000000000000000000000000000E
:1022D00000000000000000000000000000000000FE
:1022E00000000000000000000000000000000000EE
:1022F00000000000000000000000000000000000DE
:1023000000000000000000000000000000000000CD
:1023100000000000000000000000000000000000BD
:1023200000000000000000000000000000000000AD
:10233000000000000018B4BC180008D0B020408095
:10234000800000000000000000000000000000000D
:102350000000000000000000000040DE43070C39D0
:1023600073E898141415D3D6140C1800000000005C
:102370000000000000000000000000000000000C51
:102380001310080000000103071C38F3CD940A0A5B
:10239000000000000000000000000000000000003D
:1023A000000000000000000000000000000000002D
:1023B0000001030F1E0000000000000000000000EC
:1023C000000000000000000000000000000000000D
:1023D00000000000000000000000000000000000FD
:1023E00000000000000000000000000000000000ED
:1023F00000000000000000000000000000000000DD
:1024000000000000000000000000000000000000CC
:1024100000000000000000000000000000000000BC
:1024200000000000000000000000000000000000AC
:10243000000000000000000000000000000000009C
:10244000000000000000000000000000000000800C
:1024500040200C1A1ECCC0828A36E48444A8481856
:10246000D0901020202040404080808000003048E4
:1024700048250204000000000000000101030307DA
:10248000070F0C1C1838337E78F4CAC582810E7C85
:10249000E00101000000000000000000000000005A
:1024A000000000000000000000000000000000002C
:1024B0000101030307070F0C0000000000000000EB
:1024C000000000000000000000000000000000000C
:1024D00000000000000000000000000000000000FC
:1024E00000000000000000000000000000000000EC
:1024F00000000000000000000000000000000000DC
:1025000000000000000000000000000000000000CB
:1025100000000000000000000000000000000000BB
:1025200000000000000000000000000000000000AB
:10253000000000000000000000000000000000009B
:10254000000000000000000000000000000000008B
:102550000000000000CC1A1ECCC0828A36E48444FD
:10256000A84818D090102020204040408080800053
:1025700000000000804042340813200000000101E8
:10258000030307070F0C1C1838337E78F4CAC58282
:10259000810E7CE001010000000102020100000048
:1025A000000000000000000000000000000000002B
:1025B0000000000101030307070F0C0000000000EA
:1025C000000000000000000000000000000000000B
:1025D00000000000000000000000000000000000FB
:1025E00000000000000000000000000000000000EB
:1025F00000000000000000000000000000000000DB
:1026000000000000000000000000000000000000CA
:1026100000000000000000000000000000000000BA
:1026200000000000000000000000000000000000AA
:10263000000000000000000000000000000000009A
:10264000000000000000000000000000000000008A
:1026500000000000000000000CDA1ECCC0828A36A8
:10266000E48444A84818D0901020202040404080A6
:1026700080800000000000000000000000887B084F
:10268000000101030307070F0C1C1838337E78F490
:10269000CAC582810E7CE00101000000000000003C
:1026A0000000010202010000000000000000000024
:1026B0000000000000000101030307070F0C0000E9
:1026C000000000000000000000000000000000000A
:1026D00000000000000000000000000000000000FA
:1026E00000000000000000000000000000000000EA
:1026F00000000000000000000000000000000000DA
:1027000000000000000000000000000000000000C9
:1027100000000000000000000000000000000000B9
:1027200000000000000000000000000000000000A9
:102730000000000000000000000000000000000099
:102740000000000000000000000000000000000089
:1027500000000000000000000000000C1ADE0CC0A9
:10276000828A36E48444A84818D090102020204063
:102770004040808080000000000000000000000059
:10278000000020139869058107070F0C1C183833C7
:102790007E78F4CAC582810E7CE001010000000051
:1027A0000000000000000000000102020100000023
:1027B0000000000000000000000101030307070FF4
:1027C0000C000000000000000000000000000000FD
:1027D00000000000000000000000000000000000F9
:1027E00000000000000000000000000000000000E9
:1027F00000000000000000000000000000000000D9
:1028000000000000000000000000000000000000C8
:1028100000000000000000000000000000000000B8
:1028200000000000000000000000000000000000A8
:102830000000000000000000000000000000000098
:102840000000000000000000000000000000000088
:1028500000000000000000000000000000000C1A52
:102860001E4CC0028A36A40444A84818D0901020F8
:1028700020204040408080800000000000000000D8
:1028800000000000000000080402056893876C0C3B
:102890001838337E78F4CAC582810E7CE0010100CD
:1028A0000000000000000000000000000000000028
:1028B0000000000000000000000000000101030310
:1028C00007070F0C000000000000000000000000DF
:1028D00000000000000000000000000000000000F8
:1028E00000000000000000000000000000000000E8
:1028F00000000000000000000000000000000000D8
:1029000000000000000000000000000000000000C7
:1029100000000000000000000000000000000000B7
:1029200000000000000000000000000000000000A7
:102930000000000000000000000000000000000097
:102940000000000000000000000000000000000087
:102950000000000000000000000000000000000077
:102960000000000000000000000000000000000067
:102970000000000000000000000000000000000057
:10298000008040C08020A0A0202020A020D0D09097
:1029900010101010109050906868C8880808080837
:1029A000080800000000017B0301080C0D0F0E0D4C
:1029B0000E1D1818191B1E1C1A1D1A19181010307C
:1029C0003133363C38343A00000000314F412000AA
:1029D00000000000000000000000000000000000F7
:1029E00000000000000000000000000000000000E7
:1029F00000000000000000000000000000000000D7
:102A000000000000000000000000000000000000C6
:102A100000000000000000000000000000000000B6
:102A200000000000000000000000000000000000A6
:102A30000000000000000000000000000000000096
:102A40000000000000000000000000000000000086
:102A50000000000000000000000000000000000076
:102A60000000000000000000000000000000000066
:102A70000000000000000000000000000000000056
:102A80000000000000000000000000000000000046
:102A90000000000000000000000000008080C0C0B6
:102AA00060603030180000000000000000000000EE
:102AB000008080C0C060603030B8188C6CE6C6837F
:102AC00083E119E4168C8C98587400000000000013
:102AD00000000018B43C19012022261C1816090E0B
:102AE00009040404030303010101000000000000C5
:102AF0000000000000000000887B080000000000CB
:102B000000000000000000000000000000000000C5
:102B100000000000000000000000000000010202B0
:102B200001000000000000000000000000000000A4
:102B3000000000000000000000140201000000017D
:102B4000000000010000000100000001000000146E
:102B5000030200000002000000020000000200006A
:102B600000020000000B0BF83878E8D0A000A0109D
:102B70000C0C0704040405070707000000F8387868
:102B8000E0C8A44383000000070404040507070706
:102B90000000000B1300FE48484848484848FE0023
:102BA00000FF92929292929292FF00000300000026
:102BB00000000000030019100101070505070303C9
:102BC00003030303030303030303030705050704C8
:102BD00004000000000000000000000000000000F1
:102BE00000000000000000000000040407050507C5
:102BF000030303030303030303030303030705059D
:102C000007010100000000000000000000000000BB
:102C100000000000000000000000000001010705A6
:102C2000050703030303030303030303030303076A
:102C30000505070101000000000000000000000081
:102C40000000000000000000000000000000010182
:102C50000F0B0A0E060606040C0C0C0818181818A0
:102C60007050507040400000000000000000000064
:102C70000000000000000000000000000000000054
:102C80000040407050507018181818080C0C0C04B4
:102C90000606060E0A0B0F010100000000000000EE
:102CA0000000000000000000000000000000000024
:102CB000000001070B0A0E06040C0C08181810304F
:102CC0003020E06040C00000000000000000000074
:102CD00000000000000000000000000001010101F0
:102CE000010000000000000000C04060E020303023
:102CF000101818080C0C04060E0A0B07010000003F
:102D000001010101010000000000000000000000BE
:102D100000000000000019362C183060C080000050
:102D200000000000000000000000000000000000A3
:102D30000000000000000103066CD8B060800000B5
:102D40000000000000000000000000000000000083
:102D500000000000000000000080C06030182C3629
:102D600019000000000000000000008060B0D86C76
:102D7000060301000000000000000D08252D393178
:102D80002931252D39312931210C08627A7A626284
:102D90007A7A62627A7A620B08878F9DB7E7C7A555
:102DA000D7AF978D00190100050F0C1804241805E2
:102DB0003C18060943001342001D41002740003122
:102DC0003F003B3E00453D00092F03152F01212FF9
:102DD000012D2F01392F01452F01174B01234B01E5
:102DE0005750015F50016349016F49017B49016DF3
:102DF000500E573F01633F016F3F017B3F01FB6C6A
:102E000001166C01226C012E6C01326C014F6C01B9
:102E1000005C000A5D00145E001E5F002860003246
:102E200061003C62004663005064005A65007170A6
:102E3000027D70020A85001484001E83002882002F
:102E40003281003C8000467F00507E005A7D006445
:102E50007C00094A035B6A03FC2F0100240700443D
:102E6000891444882845883C4688504788644888A7
:102E70007849885B0A0A55000B007A0C007A4D7974
:102E800085527285516B8550000000387CFEFFFF33
:102E9000FFFE7C380000000101010000000909006C
:102EA000385482D682543800000000000000000030
:102EB0000000384CC2928664380000000000000018
:102EC0000000000038648692C24C38000000000008
:102ED000000000000003F70403F80403F90403FAF8
:102EE0000403FB0403FC0403FD0403FE0403FF04CA
:102EF0000300040301020501020701020901020B9C
:102F000001020D02020F0202110202130202150257
:102F1000021703021903021B03021D03021F03020F
:102F20002104022304022504022704022904022B9F
:102F300005022D05022F0502310502330502350673
:102F4000023706023906023B06023D06023F07022F
:102F50004107024307024507024707024908024B9F
:102F600008024D08024F0802510802530902550990
:102F7000025709025909025B09025D0A025F0A024F
:102F8000610A02630A02650A02670B02690B026B9F
:102F90000B026D0B026F0B02710C02730D04730FA9
:102FA0000473110473130473150473170473190461
:102FB000731B04731D04731F0473210473230471B2
:102FC00023016F23016D23016B2401692401672410
:102FD000016524016324016125015F25015D25014F
:102FE0005B2501592501572601552601532601511C
:102FF00026014F26014D27014B270149270147276D
:10300000014527014328014128013F28013D2801AE
:103010003B2801392901372901352901332901319B
:1030200029012F2A012D2A012B2A01292A01272AC9
:1030300001252B01232B01212B011F2B011D2B010E
:103040001B2C01192C01172C01152C01132C01111B
:103050002D010F2D010D2D010B2D01092D01072E25
:1030600001052F010531010533010535040537043C
:10307000053904053B04053D04053F0405410401F1
:103080000204081020408021080F0F0808000609DC
:103090000B06000E03030E000F090F06000F0F00B2
:1030A0000F02030F000E0F090D000E10BEBDBEBDB6
:1030B000BEBDBEBDBEBDBEBDBE000004000400045A
:1030C00000040004000400004E080F0D0702000F6A
:1030D000050F0A000F0D0900020B0D00020B0D0079
:1030E000000000000F0D0702000F0F0808000E037C
:1030F000030E00030E0E0300000006090B06000F6E
:1031000002030F00000000010F0F010E03030E0069
:103110000F0D0702000F0D090E10A7C7A7C7A7C7FD
:10312000A7C7A7C7A7C7A700070707070707070776
:1031300007070707070024080E1F1F1F0E000000C7
:1031400000000000000000001F0E0400000000004E
:1031500000000000040E1F00040E1F00FFFFFFFF11
:10316000FFFFFFFFFFFFFFFFFFFFFFFFFFFFFFFF6F
:10317000FFFFFFFFFFFFFFFFFFFFFFFFFFFFFFFF5F
:10318000FFFFFFFFFFFFFFFFFFFFFFFFFFFFFFFF4F
:10319000FFFFFFFFFFFFFFFFFFFFFFFFFFFFFFFF3F
:1031A000FFFFFFFFFFFFFFFFFFFFFFFFFFFFFFFF2F
:1031B000FFFFFFFFFFFFFFFFFFFFFFFFFFFFFFFF1F
:1031C000FFFFFFFFFFFFFFFFFFFFFFFFFFFFFFFF0F
:1031D000FFFFFFFFFFFFFFFFFFFFFFFFFFFFFFFFFF
:1031E000FFFFFFFF4410000000000000BC7EC7EBA3
:1031F000EDEBC77EBC00003C2C00381438000824DE
:103200001000043804000000000000BC7EC1D5D5C9
:10321000D5CB7EBC00003C103C00381438003C1478
:1032200028003C24180000000000000000000000FE
:103230000001020202020201000000000000000082
:10324000000000000000000000000000000000007E
:103250000102020202020100000000000000000062
:103260000000000000000000000000000000387CAA
:10327000FEFFFFFFFE7C380000000101010000009E
:10328000090900385482D68254380000000000003A
:103290000000000000384CC2928664380000000034
:1032A0000000000000000038648692C24C38000024
:1032B00000000000000000000D08252D39312931E3
:1032C000252D3931293121622BFC02FDFDFDFDFD4B
:1032D000FDFDFDFDFD02FDFDFDFDFDFDFDFDFDFD19
:1032E000027C90E8F4FAFDFDFDFDFDFDFDFDFDFD18
:1032F000FAF4E890FC02FDFDFDFDFDFDFDFDFDF392
:10330000CC02FDFDFDFDFDFDFDFDFDFDFD02DCE84A
:10331000F4FAFDFDFDFDFDFDFDFDFDFDFAF4E8D037
:1033200020C00000000000000000000001FE00FFBF
:10333000BF7F7F3FBFBFBC7E7F7FBF7FB7CB35C224
:103340000202FF00FFBF7FBF7FBFFF01FE0001FF42
:103350007FBF7FBF7FFF00FFFE00FFBF7FBF7FBF3C
:10336000FF7FFFBF7CB07FBF7FBF7FBFFF00FE003E
:10337000FFBF7FBF7FBFFF00FE0EECAB6BAB6BAB45
:103380006BEB0CF3000000000000000000F008F7F9
:10339000B0DFAAD08003354E7D6F15FAAFD5AAD71E
:1033A000AED9B6F40FF08F7AD5AAD5AADFB8D7B4C4
:1033B000D8AFD5AAD5EA7D8FF00FF7B0DFAAD5AA8E
:1033C000D5AADFB0F1079D7AD5AAD5AAD5AAFF0064
:1033D000FF40BF6AD5AAD5AADFB0D7B4D3BED56A9D
:1033E000350A959F809F8080000000000000003B10
:1033F00078EABA3A3A2ABA78B86B3A79EAB83A3AF5
:103400002ABA7ABA6A3A78EBB8393A28BA7ABA6AF2
:103410003A7AEABA3A3A28BA79B86B387AEABA3AD2
:103420003A2ABA7ABA6A3A78EBBA383A2ABA7ABAFF
:103430006A387BE8B8393A28BA7ABA6A3A3A0A005E
:10344000E01C8261BCB2A8A8B2BC61821CE0000092
:103450000004040405070605060504040404040525
:103460000706050605040404040405070605060509
:103470000404040404050706050605040404040402
:1034800005070605060504040404040507060506E9
:103490000504040404040507060506050400001CD1
:1034A00062810972F4D16B9AF2F29A6BD1F47209CB
:1034B00081621C000000000000000000000000000D
:1034C00000000000000000000000000000000000FC
:1034D00000000000000000000000000000000000EC
:1034E00000000000000000000000000000000000DC
:1034F00000000000000000000000000000000000CC
:10350000000006020504040605000000000506048C
:10351000040502060000BD3111241FBECFEFDAE022
:10352000DEBFCDBF11E0A0E0B1E0E6EFFEE602C0F5
:1035300005900D92A436B107D9F726E0A4E6B1E0D4
:1035400001C01D92A238B207E1F71AE1CCE8DAE136
:1035500004C02197FE010E944D36CB38D107C9F730
:103560000E948C320C9479370C9400002F923F9279
:103570004F925F926F927F928F929F92AF92BF9283
:10358000CF92DF92EF92FF920F931F93CF93DF932F
:10359000CDB7DEB767970FB6F894DEBF0FBECDBFCD
:1035A0008C016B01DB0119969C9019971A96BC91BE
:1035B000BE8BFC0182818111EAC07801F8E5EF0E33
:1035C000F11CD70119968C918111E1C0F801E558E1
:1035D000FF4FF98BE88B8081882359F1F601278111
:1035E000308520FD35C7D70112968C918111A7C473
:1035F000D7011A968C911A978111B7C11B969C918D
:103600009111B3C1F7018381F92DF074BF2E86FDAE
:10361000A5C4B110AEC4B92CB5FCB8C4B4FCC3C4C5
:10362000B7FCC7C4F801E358FF4F8081882309F431
:10363000C5C41701F7018480D60117968C9180FFCD
:10364000A3C1F8017196FB8BEA8BD80154968C913B
:10365000863209F4A2C18F3309F4E9C68D3009F42A
:10366000E4C6BB24BA94863209F09AC1F801838972
:1036700081119CC1AA24A394F8018289811196C169
:103680002801F2E54F0E511C38012CE1620E711C2D
:10369000F30180E04E165F0609F08AC1F801E15897
:1036A000FF4F9081891708F0A12C0E94113523E06B
:1036B00030E040E050E00E94B6356230710581058F
:1036C000910509F47AC1F6018781908566E070E082
:1036D0000E942536892B29F453014A145B0409F012
:1036E000C6C1D60153968C915397813009F4B1C26B
:1036F000D60153968C918130C9F47801B2E5EB0E76
:10370000F11C5801E5E5AE0EB11CD7019C91F50105
:103710008081890FF20190E0E215F30509F010C3F2
:10372000882309F419C3813009F413C3F601878192
:10373000908583709927892B09F41CC3D8015B9667
:103740008C915B97882309F451C354968C918632EF
:1037500008F42EC3873208F036C34614570409F024
:10376000CBC3F6018781908566E070E00E94253624
:10377000892B09F4CEC3D60117968D919C91189789
:103780006CE070E00E942536892B09F4CDC3F60168
:103790008289811106C081E0848BF801E558FF4FD2
:1037A00010825801FCE7AF0EB11CD501FC90B3E6C6
:1037B000BF1548F0E2E0FE1608F04AC0F1E0FF163F
:1037C00009F44AC069C024E6F21242C081E0F8015F
:1037D000EF57FF4F8083F60182898823A1F160E0D3
:1037E00070E0C801885A9F4F0E942E2CC8018E5A43
:1037F0009F4FF8017C96E817F90741F020812B3A9A
:1038000018F01082138214823696F5CFF801EC5826
:10381000FF4F8081811104C0C8010E94672C13C032
:10382000D80151961C92519752961C9252975396DA
:103830001C9253978DE054968C9354975B961C92F0
:103840005B9755961C92F50180818150808324C03E
:10385000FA94D501FC9220C0F6018289882349F0B0
:10386000C801885A9F4F0E94492CF801E558FF4F24
:10387000F082D5011C92F801EF57FF4F108270972C
:1038800081E08283D801AE58BF4F8C91823010F412
:103890008F5F01C080E081837801BDE7EB0EF11CF2
:1038A000F7018081882311F081508083F801E55869
:1038B000FF4F8081D60154962C91811125C0211192
:1038C00023C08E8980959822892D8C7009F4C4C5F7
:1038D00081E0808336961082F5011082C801885AF3
:1038E0009F4F0E94492CF801E659FF4F1382108226
:1038F0000480F581E02D82E0828384E1808393FE61
:10390000ABC5D7018C93A8C5F601828580959185BA
:1039100089232223F9F083FF9FC565E0C6014696FF
:1039200067960FB6F894DEBF0FBECDBFDF91CF9183
:103930001F910F91FF90EF90DF90CF90BF90AF90CD
:103940009F908F907F906F905F904F903F902F90BF
:103950000C94D22A82FF80C5D80112969C911297AE
:1039600081E0892712968C9377C5F7019385911191
:10397000EEC2882329F023703327232B09F45AC37E
:103980001701D70114968C905801B4E6AB0EB11C08
:10399000F5018581811155CE9BC4BB24B39466CEBD
:1039A0008F3309F463CE8D3009F460CEA12C68CE3C
:1039B000938191118F5F36966DCEAA2009F483CE44
:1039C000F3014E165F0649F18381882321F180813E
:1039D0008E3418F491819B11A12C95EC980F98309E
:1039E00030F491819B1103C0B11001C0A12C92EE63
:1039F000980F983038F48181B8120DC031E0B312BD
:103A00000AC008C0883038F48181B81204C042E08E
:103A1000B41201C0A12C3696D4CFAA2009F453CEFB
:103A20005301A414B50409F44ECED50113968C911C
:103A300013978111AAC414968C918111A6C40E9477
:103A4000113523E230E040E050E00E94B635DC0161
:103A5000CB010596A11DB11DF5018483F801B08E3F
:103A6000A78A128A838B6CE3680F618B2CCED501F9
:103A700013968C91882309F4E8C0E889F98980813C
:103A8000882309F444C0D70112968C91882309F445
:103A90003EC0D5012C91B3E02B9F90011124F90178
:103AA000E45AFE4F4491F901E35AFE4F2491D701A5
:103AB000ED91FC91B5E0BE9FB001BF9F700D112448
:103AC000FB01E55CF74E3491F7013683FB01E45CC2
:103AD000F74E9491E82FF0E0EA5EF74E8491042EC1
:103AE000000C550BE32FF0E04E175F0781F4F70150
:103AF0003481E92FE31BE81B0E2E000CFF0B281965
:103B0000E21BF10927FDF39539970CF442C4C1017A
:103B10000E949F2C29833A834B835C836D837E8331
:103B2000F5018081F3E08F9FC00111249C01245A8C
:103B30003E4FF9014491835A9E4FFC014491A8895C
:103B4000B9894C91442309F439C0F9012491FC014D
:103B5000F491FF8B422F220F550B5D8B4C8BC101D3
:103B60000E949F2C2F83388749875A876B877C87D1
:103B70002F813885A901460F511D8C899D89019699
:103B800084179507DCF48C899D89089628173907D6
:103B9000ACF48F898819082E000C990B29853A8579
:103BA000D901A70FB11DAC014F5F5F4F4A175B07EB
:103BB0002CF40896281739070CF43CC4F5019081C1
:103BC00023E0929FF0011124E25AFE4F84919F5FFF
:103BD000869586958695980FD5019C93B3E09B9F1B
:103BE000C0011124FC01E45AFE4F2491FC01E35A68
:103BF000FE4F8491211105C0811103C0F50110828F
:103C00001382D501EC91B3E0EB9FF0011124E25A4D
:103C1000FE4FE491E770D5011596EC931597E130CE
:103C200051F0E23091F412968C91823010F48F5F53
:103C30000AC080E008C0D50112968C91882311F04B
:103C4000815001C082E0F5018283F6E0AF0EB11C25
:103C500044CD17968D919C9118976AE070E00E9470
:103C60002536892B09F044CD72012E143F0409F446
:103C70003FCDF7018081882309F45EC081818F5F89
:103C80008183F3E08F9FC0011124FC01E051FC4FC0
:103C90002491FC01EF50FC4F8491211106C0811149
:103CA00004C0D7011C9211961C92E889F989808181
:103CB000882309F441C0D70111968C91B3E08B9F02
:103CC000C0011124FC01E051FC4FA490FC01EF5015
:103CD000FC4F24912C8B0A2C000CBB08C1010E94C4
:103CE0009F2C29833A834B835C836D837E838981F8
:103CF0009A81AC01460F511D95012F5F3F4F24174C
:103D00003507D4F435E1A30EB11C8A159B05A4F444
:103D10008C898819E82FF0E08B819C81AC01470FDA
:103D2000511D9F012C5F3F4F241735072CF4389607
:103D30008E179F070CF487C343E0E40EF11C95CF68
:103D40002081222321F02181921708F4922F3396AB
:103D5000E3CC933308F4EACC0E94113522E330E03F
:103D600040E050E00E94B635672B682B692B09F4C0
:103D700029C3DCCCF801E659FF4F8081882309F480
:103D8000DDCC813091F4108213820480F581E02D26
:103D900082E0828384E18083809164018111CECCB2
:103DA00084ED94E00E940224C9CC81508083C6CC6B
:103DB0008E30B8F48D3009F0D0CC88E0F801868BD5
:103DC0008EE0848BCACC8F3360F08F3309F0C5CC82
:103DD00084E0D80156968C9356978EE354968C9334
:103DE000BCCC8A899B890E94B622B7CCF801838912
:103DF000882339F08150838B811133C088E2828B14
:103E000030C08289882369F18150828B811129C059
:103E10008489863221F08F3321F080E003C081E075
:103E200001C082E0D8015796ED91FC9158972091FE
:103E30000A0130910B0140910C012D873E874F877D
:103E4000DE01A80FB11D1D969C919083818381E0B6
:103E5000838380916401811104C08EED94E00E94FF
:103E60000224F8018189882311F0815043C084899C
:103E7000863271F020F48D3049F0F8F46ECC8F3337
:103E8000E0F08F3309F069CC84E015C088E013C0FE
:103E90000E94113522E030E040E050E00E94B6354B
:103EA000672B682B692B11F484E001C088E0D801EE
:103EB00056968C9302C0F801868B8A899B890E9452
:103EC000B622D80154968C91863229F08F3319F09E
:103ED0008D3009F042CC0E94113522E830E040E0FC
:103EE00050E00E94B635DC01CB018A5B9F4FAF4F9B
:103EF000BF4FF801818B31CCD30114968C9114976C
:103F0000882319F0815014968C93B6E06B0E711CC7
:103F100024CCF801E059FF4F8081833010F48F5F8B
:103F200001C080E0808327CCF801EF58FF4F8081EB
:103F3000823010F48F5F01C080E0808328CC84320F
:103F400010F48F5F6AC0D70112961C9272CBA90140
:103F500043705527452B09F463C00BCD95FE02C075
:103F600082FD35C0BB20E9F0F701838183FD16C0D7
:103F700018C093FE30C087FF2EC081E0D7011A968B
:103F80008C93C7010E94DA2CB12C46CBF7018381B8
:103F900082FF30C2C7010E94F62C2CC2C7010E94CA
:103FA000F62CB92C3BCBD70113968C9181FD2DC0FB
:103FB00037CBF701838180FD2CC034CBB3FE39CBE6
:103FC000D70113968C9184FF34CB81E026C0C701C2
:103FD0000E94DA2CC7CF83FF1ECBD7018D919C9115
:103FE00011978439910569F481E01B968C936AEDF1
:103FF00070E0C7010E942E2C88EC95E00E940224FC
:104000000ACBC7010E94DA2C06CBC7010E94F62C0E
:1040100007CBC7010E94DA2C05CBF701828309CBBD
:10402000808191818E3E910591F5B601C8010E9473
:10403000842CFFCAF6018389813009F447C144E02A
:10404000D7018D919C915801B4E6AB0EB11CF501DE
:104050002181BC01605A710967327105E0F08B3A29
:10406000910509F4CFC008F061C0833A910509F4C5
:10407000B3C008F04CC08839910509F48AC08F3963
:10408000910509F49BC08739910509F474C0C701F3
:104090000E94DA2CCECA709630813111E0CFD8015F
:1040A000AB58BF4F3C91E1E0E30FEC9311965C916C
:1040B0001197513089F048F05230C1F473E0E79F16
:1040C000F0011124EC52FF4F0DC053E0E59FF001C9
:1040D0001124E35CFE4F06C063E0E69FF00111246B
:1040E000E75EFE4FE491E93009F43C931296E889CB
:1040F000F989AE17BF07B1F6D80155963C9155978F
:104100003F3008F0ACCF3F5F55963C93A8CF853A3F
:10411000910509F472C008F490C0883A910509F03D
:10412000B6CFC7010E94DA2C85E083C0893D910596
:1041300009F47BCF88F4873B910509F46AC0873C7A
:10414000910509F481C08E3A910509F0A0CFC7010D
:104150000E94DA2C89E06DC08333B1E09B0709F43B
:104160008AC08A33E1E09E0709F46EC0873291402D
:1041700009F486C08CCF243008F489CF421708F4A4
:1041800086CF81E0D50115968C93C7010E94DA2C69
:104190007ECF233010F0421740F468EC70E0C70186
:1041A0000E942E2C88EC95E041C0C7010E94DA2CB9
:1041B00084E0F501818381E085833BCAC7010E94C9
:1041C000DA2CD50111961C9281E0F801838F84E6E8
:1041D000818B128A138A2DCAC7010E94DA2C81E0D2
:1041E000D50111968C93F801EC58FF4F80818823FC
:1041F00009F41FCA815080831CCAC7010E94DA2CAF
:1042000082E004C0C7010E94DA2C88E0F5018183B6
:1042100010CAF801EC58FF4F8081811138CF60EF50
:1042200070E0C7010E942E2C88E195E00E940224D4
:1042300000CAD50111968C93FCC9F6018089918939
:104240004496918B808B23CF88ECF801E458FF4F84
:1042500080837297138210820480F581E02D82E0C2
:10426000828384E18083F801EF57FF4F1082A88991
:10427000B9891C92DEC9F801EF58FF4F128207CFAF
:10428000F60180899189C296918B808BC7010E942B
:10429000DA2CF801E158FF4F8081893010F48F5FEC
:1042A0008083F801E058FF4F6081862F90E08935C8
:1042B00091050CF0BEC96E5F608370E088EE93E0FC
:1042C0000E943936D6011B966C93B3C943E0B8CE31
:1042D00092819230A9F5F50120818181222371F02C
:1042E000215020838350853008F0ABC9848182300F
:1042F00009F4A7C9C5010E94C422A3C98830D9F016
:1043000018F4833088F49DC9893009F09AC99483E0
:104310008AE08083128295C9F5018181883099F104
:1043200040F1893009F08DC988E0D50111968C9350
:10433000119784E116C089E0F501818384E107C00B
:10434000933039F4F5018081882369F081508083AE
:1043500078C9913009F075C9D5018C918823E1F2B3
:1043600081508C936EC9C5010E94C4228AE0D50198
:10437000F8CF833008F465C982E084838AE08083C3
:1043800083E082835EC985E0D7CFF6E0AF0EB11C33
:1043900048CBD50111968C91833008F0B8CBEFEF64
:1043A000D5011196EC93D60150968D919C91519721
:1043B000019651969C938E9350978AE095E00E94C7
:1043C0000224A5CBF7018081882339F0D5018C9197
:1043D000882311F08FEF01C081E090E0FC01EE0F27
:1043E000FF1FE80FF91FE00FF11FEE5AFF4F81E0AA
:1043F00080839CC9D70113968C9185FF0FC9F80162
:10440000E659FF4F8381811109C981E083839CE8CC
:104410009083F801EC59FF4F1582828384E18083F9
:104420008EEB95E00E940224F9C8B12C1FC982E0EE
:10443000B82E1CC9B601C8010E94842C8CEE94E0F1
:104440000E940224BBCBB601C8010E94842C74CC0C
:104450001701F7018480F5C867960FB6F894DEBFA0
:104460000FBECDBFDF91CF911F910F91FF90EF90C5
:10447000DF90CF90BF90AF909F908F907F906F9084
:104480005F904F903F902F90089580916B02E09144
:104490006902F0916A02882349F0CF010296909355
:1044A0006A0280936902859194910895CF010296E2
:1044B00090936A02809369028081918108950895A2
:1044C0000895089508950895089508950C94EB367D
:1044D0000C94EB360C94EB360C94EB360C94EB36D8
:1044E0000C94EB36FC018181813099F050F08230E0
:1044F000C9F4E08183E0E89FF0011124ED52FF4F01
:104500000FC0E08183E0E89FF0011124E45CFE4FDE
:1045100007C0E08183E0E89FF0011124E85EFE4FD0
:104520008491089580E00895FC018181813099F0A3
:1045300050F08230C9F4E08183E0E89FF00111245B
:10454000EE52FF4F0FC0E08183E0E89FF00111249D
:10455000E55CFE4F07C0E08183E0E89FF001112495
:10456000E95EFE4F8491089580E00895FC01858105
:10457000843019F0883021F008958381815002C081
:1045800083818F5F83830895FC018381843019F0D8
:10459000883061F017C08481882321F0853090F441
:1045A00081500DC081E0848388E00BC08481843019
:1045B00028F0843039F493E0948303C08F5F8483C0
:1045C00001C0838381818350853018F484818D5F9D
:1045D00081830895E1E7F0E080818D7F80831092F0
:1045E000910046984798109264010895CF92DF9207
:1045F000EF92FF920F931F93CF93DF930E94452278
:10460000811520E8920751F4DF91CF911F910F910E
:10461000FF90EF90DF90CF900C94EA2221E020935E
:104620006401813020E8920751F4809167029091F3
:10463000680290936A02809369020E94452297FD66
:1046400005C020916602222309F440C02091650232
:1046500021113CC021E020936C02EC01DF77209710
:1046600069F481E080936D0246983FE9C32E3FE0F4
:10467000D32EE12CF12CCAEFD0E014C08E0120E043
:1046800030E060E472E48FE090E0A90198010E94BC
:10469000B63569017A0181E0C81AD108E108F1084C
:1046A00010926D02E0917B06F0917C0609958111D4
:1046B00003C081E080936D0280916C02882309F42D
:1046C0003FC080916D0281113BC003C010926C020B
:1046D000C4CF469935C0479A0E944522009771F091
:1046E0009C01DE010E940A36DC01CB0129E0B59570
:1046F000A795979587952A95D1F703C08FEF9FEFE0
:10470000DC01109290002AE020939100D092990051
:10471000C092980080936E0290936F02A0937002F3
:10472000B093710280917100826080937100DF917B
:10473000CF911F910F91FF90EF90DF90CF90089550
:104740004798CACF1F920F920FB60F9211242F9342
:104750003F934F935F936F937F938F939F93AF9309
:10476000BF93EF93FF9380916E0290916F02A0919F
:104770007002B0917102892B8A2B8B2B81F1809171
:104780006D0281110BC098B180E4892788B98091AE
:104790006C02882319F088B1805888B980916E0224
:1047A00090916F02A0917002B091710218161906D3
:1047B0001A061B06B4F480916E0290916F02A091CC
:1047C0007002B09171020197A109B10980936E0244
:1047D00090936F02A0937002B093710202C00E9486
:1047E000F622FF91EF91BF91AF919F918F917F91B1
:1047F0006F915F914F913F912F910F900FBE0F904E
:104800001F9018959C01E1E7F0E090819D7F9083D7
:1048100081E080936B0230936A02209369023093A7
:104820006802209367020C94F6222F923F924F92D7
:104830005F926F927F928F929F92AF92BF92CF9230
:10484000DF92EF92FF920F931F93CF93DF9300D0ED
:1048500000D0CDB7DEB75C014B016C0128E5C20E7C
:10486000D11CD6011496FC90FB014780508440E097
:104870000E94E92A1501F2E52F0E311C35012CE1C9
:10488000620E711C2614370439F1D30113968C91F2
:1048900013978823E9F06C91B3E06B9FB00111246A
:1048A000FB01E45AFE4F8491FB01E35AFE4F6491F1
:1048B0006F19062E000C770BE12CF30102812CEC12
:1048C00037E14EED57E1082E000C990B0E94753030
:1048D000F6E06F0E711CD6CFF501E558FF4F8081D1
:1048E000811108C0C20168E270E00E94253685315E
:1048F00008F48BC0D6018D919C9125E0289FB001D2
:10490000299F700D1124FB01E25CF74E2491F60102
:10491000928191112DC0211135C0368185813813C6
:1049200005C021E080858430D9F539C083177CF437
:1049300087818F5F878328E02087803109F4178281
:10494000F601278126952695220F2D5F1BC038176B
:104950003CF587818F5F878324E02087803109F4CD
:104960001782F601278126952695220F2E5F0AC011
:1049700026818581281313C08085843009F473C192
:104980002BE00EC0233118F4203150F00EC0253139
:1049900090F42351A0E0B0E04AE656E110C020E0D8
:1049A000AAE8B5E14AEE56E10AC02051A0E0B0E025
:1049B00044E956E104C0A0E0B0E040E050E0F60178
:1049C00086818583FB01E55CF74E8491F601868341
:1049D000FB01E45CF74E6491E92FF0E0EA5EF74EEC
:1049E0003491F6019481691B631B062E000C770B32
:1049F000082E000C990B109719F40E94F32F05C094
:104A0000E22E022F9D010E947530D50154963C91F3
:104A100054975B969C915B9755968C91992331F0B6
:104A2000E82FF0E0E853F34FE49101C0E0E0EF1924
:104A3000ED5F8D3030F08F3008F18F3011F418E0D9
:104A400022C0363249F020F43D3031F080F41BC0F2
:104A50003F3368F03F33B9F4D50152968C918823E7
:104A600079F06AE00E94193616E0181B0CC0D501D7
:104A700056968C91883031F412E005C017E003C0DF
:104A800010E001C011E06E2FEE0F770B212F4CE6E6
:104A900053E1832F90E00E94F32FF401838981304A
:104AA00059F52C143D0441F1D1018C91882301F179
:104AB00011960C91B3E00B9F80011124F801E05195
:104AC000FC4F8491F801EF50FC4F6491F801EE50D7
:104AD000FC4F04916F19062E000C770BE02E22E696
:104AE00032E146EE52E1082E000C990B0E9475301F
:104AF000E3E02E0E311CD5CF40E4B401C5010E9485
:104B0000E92AD40154968C9181111EC0F501EF570A
:104B1000FF4F8081882321F1E12C00E020EB30E180
:104B200048E851E164E170E08BE190E00E9475306B
:104B3000F4012289215048E750E167E170E08FE4F9
:104B400090E00E94F32F1DC0E12C00E020E03EE049
:104B500041EE5EE064E170E089E190E00E94753032
:104B6000D50112968C91882361F0E12C00E028EDAC
:104B70003CE04BE65DE064E170E087E290E00E949B
:104B80007530E12C00E022EF3FE044E350E160E0CB
:104B900070E080E690E00E94753019821A821B82D4
:104BA0001C82F40180899189FE0131966E0125E015
:104BB000C20ED11C2AE030E0B9010E942536819353
:104BC000CB01EC15FD05C1F70BE610E0D6012E91E7
:104BD0006D0148EC5FE063E070E0C8010E94F32FD4
:104BE0000B5F1F4F0F37110589F7F4018289882366
:104BF00049F020E044EC5FE063E070E085E690E09F
:104C00000E94F32FD40152968C91823048F020E01C
:104C100044EC5FE065E070E083E690E00E94F32FF3
:104C2000F4018289833008F120E044EC5FE065E024
:104C300070E087E690E00F900F900F900F90DF915B
:104C4000CF911F910F91FF90EF90DF90CF90BF9089
:104C5000AF909F908F907F906F905F904F903F901C
:104C60002F900C94F32F2AE09BCE0F900F900F9073
:104C70000F90DF91CF911F910F91FF90EF90DF90F8
:104C8000CF90BF90AF909F908F907F906F905F90EC
:104C90004F903F902F9008955F926F927F928F92E6
:104CA0009F92AF92BF92CF92DF92EF92FF920F93BB
:104CB0001F93CF93DF93EC01615F7F4F7C013AE656
:104CC000E30EF11CD70112967C936E9311977A8FA5
:104CD000698F8C599F4F15969C938E9314970C97C0
:104CE0000E94492CFE01EF58FF4F81E082833F96DE
:104CF00083E480838E0101581F4F85E0F801808393
:104D000033978DE78083D70113961C9213971C92DB
:104D10001496ED91FC91159782E0828384E1808363
:104D2000FE01EF57FF4F10827E01BBE7EB0EF11C37
:104D3000F7011082CE010E94672CCE018E5A9F4F40
:104D4000FE017C968E179F0759F4712C83E7882EFD
:104D5000912CA12CB12C96E0592E6624639424C08A
:104D60001082138214823696EDCF791641F1848D2C
:104D7000681708F5861B8D3010F50E941135A501C6
:104D800094010E94B6356A5BF8012081FE0190E033
:104D90009213EBCF5C9CF0015D9CF00D1124EC0FA5
:104DA000FD1F648F678E7394D8018C91781650F430
:104DB000C72CD12CE2CF362F381B832FDCCF9F5F3F
:104DC0003696E6CFD7011C921A82DF91CF911F91C0
:104DD0000F91FF90EF90DF90CF90BF90AF909F909A
:104DE0008F907F906F905F9008952F923F924F9297
:104DF0005F926F927F928F929F92AF92BF92CF926B
:104E0000DF92EF92FF920F931F93CF93DF93CDB773
:104E1000DEB728970FB6F894DEBF0FBECDBF5C019A
:104E20008B01FC01838D6501811104C0FCE1CF0E73
:104E3000D11C03C02EE2C20ED11CF8014780508461
:104E4000EAE08E2E912CF3E0EF2EF12C20E04BEBDC
:104E50005CE0B401C7010E94F32FFAE0EF0EF11CF1
:104E60002FEF821A920A31E7E316F10479F766E32D
:104E7000862E912C7FE0E72EF12C20E04BEB5CE0BE
:104E8000B401C7010E94F32F8AE0E80EF11C91E003
:104E9000891A9108EDE7EE16F10479F7A5014C5E49
:104EA0005F4FF5016189C8010E94892AA5014B5E07
:104EB0005F4FF5016289C8010E94892AA5014A5EF7
:104EC0005F4FF5016389C8010E94892AF801878133
:104ED000908565E070E00E942536892BC9F4F501C4
:104EE00081898D3810F48F5F01C080E0F501818BDE
:104EF00082898D3810F48F5F01C080E0F501828BCC
:104F000083898D3810F48F5F01C080E0F501838BB9
:104F1000E12C00E029EE39E041E55BE062E170E080
:104F20008DE190E00E9475302DED37E042EE58E0C3
:104F300063E070E086E190E00E947530760108E160
:104F400010E03E01F7E06F0E711C9E012F5F3F4F96
:104F50001901C701029698878F8354E2852E912C00
:104F6000EF81F8852191F887EF832F3311F02054DA
:104F700001C020E047E457E0B801C4010E940330BB
:104F8000F6E08F0E911C26E38216910449F778868D
:104F90006F8241E4842E912CF10126E011922A9532
:104FA000E9F7F70180819181F1016AE070E00E94E8
:104FB00025368193CB016E167F06B9F7EF81F88510
:104FC0002291F887EF83255E47E457E0B801C401DA
:104FD0000E940330F5E08F0E911C2FE5821691049C
:104FE000D9F6075F1F4F36E0E30EF11C03331105BE
:104FF00009F0AFCFF50107890F3F09F46BC0C2017B
:1050000068E270E00E942536853108F463C0C6016D
:10501000F6E00F9F800D911D11249C012E5F3F4FE4
:10502000290139E0039F80011124480187E1880E9E
:10503000911CF501608CF6E06F9E30011124730124
:1050400023E2E20EF11C39E2630E711C015E1F4F78
:105050006E147F04F1F0640197FE02C0C12CD12CC4
:10506000C8010134110514F080E490E0C816D90697
:1050700064F480E8E816F10424F4B601C7010E9444
:10508000772A9FEFC91AD90AEBCFEFEFEE1AFE0A83
:10509000DFCFF501808DF201E80FF11D20812F3364
:1050A00011F0205401C020E0F5016789F9E06F9FFD
:1050B000B0011124685E7F4F36E0839FC001112448
:1050C0003BEFC32EE12C00E010E047E457E084966C
:1050D0000E94812DF50187898F3F79F4828D81119E
:1050E0000CC0E12C00E021EC36E043E057E065E342
:1050F00070E080E390E00E947530E12CF501038DB3
:1051000023E236E047E556E06BE170E082E090E0B4
:105110000E94753028960FB6F894DEBF0FBECDBF43
:10512000DF91CF911F910F91FF90EF90DF90CF9083
:10513000BF90AF909F908F907F906F905F904F90B7
:105140003F902F900895CF92DF92EF92FF921F939E
:10515000CF93DF93EC01DB0119961C9119978B8D8E
:10516000FE01811102C07C9601C0BE962F892F3F9F
:1051700009F47FC017968D919C9118976CE070E0B0
:105180000E9425367C01892B09F088C036E0239FD8
:10519000E00DF11D1124329617FF19C0888DDF0133
:1051A000A80FB11D8C918F5F8C93888DDF01A80FA4
:1051B000B11D8C918B3514F081E48C93888DDF01C7
:1051C000A80FB11D8C91803411F481E48C9314FFED
:1051D00010C0888DDF01A80FB11D8C9181508C9378
:1051E000888DDF01A80FB11D8C91813414F48AE5FC
:1051F0008C9315FF05C0888D882311F08150888F0E
:1052000016FF05C0888D823010F48F5F888F13FFE2
:1052100045C080818F3309F441C081818F3309F407
:105220003DC082818F33D1F16F01F60161916F0131
:105230002F898B8D882319F089ED91E002C087ECCE
:1052400091E0F6E02F9F800D911D112497012E5FB4
:105250003F4F820F931F0E9496353FEFE31AF30AE8
:1052600043E0E416F10409F78FEF8F8B84E68A8F11
:1052700015C01A969C911A97909591239C7041F0B5
:105280008A8D811105C062E0CD0146960E94D22A26
:1052900015FD1B8E16FF02C081E08B8F1076898D65
:1052A0001036E1F58F5F898F853108F445C08D3365
:1052B00010F18D3309F040C0198E83E884BD8FEF63
:1052C00087BD81EF809380001092880010928A0041
:1052D0000E94823142E150E067EC71E0CE014C96D1
:1052E0000E94683542E150E069ED71E0CE018E9692
:1052F0000E94683521C020E430E0F901E81BF10983
:10530000CF01880F93E894BD9FEF97BD91EF9093E5
:1053100080001092880080938A000EC0882361F07C
:1053200083E884BD8FEF87BD81EF8093800010926A
:10533000880010928A00198E8A8D882311F081507E
:105340008A8FDF91CF911F91FF90EF90DF90CF90E8
:1053500008952F923F924F925F926F927F928F9219
:105360009F92AF92BF92CF92DF92EF92FF920F93F4
:105370001F93CF93DF9300D000D000D0CDB7DEB71E
:105380008C013B018EE0FB018387F801108E118EAA
:1053900084E6828FFB018389F801838FFB014088BB
:1053A00051884114510409F44FC0882329F029ED94
:1053B000A22EBB24B39404C097ECA92EBB24B394B3
:1053C0006501312CC6010E9480354816590640F40B
:1053D0003394F6E0CF0ED11C83E03812F3CF34C003
:1053E00045019CE0890E911C82E0282EFE01319639
:1053F0007F013214B0F42A94B501F6E02F9E600DBF
:10540000711D112446E050E0C7010E94683546E056
:1054100050E0B401C7010E94863586E0881A9108E1
:10542000E8CF86E0F70111928A95E9F78FE38B8345
:105430008C838D835A82498246E050E0B601C701D1
:105440000E948635832D01C08FEFF801878BF30111
:105450001286118642E150E067EC71E0C8014C967B
:105460000E94683542E150E069ED71E0C8018E9616
:105470000E94683526960FB6F894DEBF0FBECDBFEA
:10548000DF91CF911F910F91FF90EF90DF90CF9020
:10549000BF90AF909F908F907F906F905F904F9054
:1054A0003F902F900895FC018181813099F050F058
:1054B0008230C9F4E08183E0E89FF0011124EC52CE
:1054C000FF4F0FC0E08183E0E89FF0011124E35C0F
:1054D000FE4F07C0E08183E0E89FF0011124E75E02
:1054E000FE4F8491089580E008950E947437EFE79D
:1054F000F0E390E1969FD001A0781124A80F677087
:10550000E60FF11D9491AA58BD4F8C91982B9C9356
:105510000895EF920F931F93CF93DF93EA0143E037
:10552000649F90011124F901EB52F14D1491F9019E
:10553000EA52F14D4491F901E952F14D2491FC01F7
:105540008781908565E070E00E942536892B99F46B
:10555000213049F0223079F48881823010F48F5F55
:1055600008C080E006C08881882311F0815001C006
:1055700082E0888315C0243099F400E0642F440F42
:10558000770BE12C2BE83EE24DE95EE2812F90E0C3
:105590000E947530DF91CF911F910F91EF90089588
:1055A0000881ECCF1F93CF93DF93EC01162F83E894
:1055B00084BD8FEF87BD81EF8093800010928800BB
:1055C00010928A000E94EA221883DF91CF911F91E6
:1055D00008952F923F924F925F926F927F928F9297
:1055E0009F92AF92BF92CF92DF92EF92FF920F9372
:1055F0001F93CF93DF93CDB7DEB72A970FB6F894FA
:10560000DEBF0FBECDBF5B01342EFC01E85AFF4F59
:10561000248024EAC22E2DE2D22E4C0121E7820EF4
:10562000911CDC01A059BF4FBA83A9837C96FC83EF
:10563000EB839C012C593F4F3E832D831697B887EF
:10564000AF833C01B9E76B0E711C2C01E7E74E0EEE
:10565000511C2F5E3F4F3A872987F601F49031960F
:10566000E49031968491E491311003C0E6FF06C0C6
:1056700011C0F0E43F120EC0E6FF0CC0D5015396F6
:105680000C91013049F1E7FD05C026C0F40182818B
:10569000811174C0B3E0CB0ED11CE8E8FEE2EC153A
:1056A000FD05D9F680E02A960FB6F894DEBF0FBE4E
:1056B000CDBFDF91CF911F910F91FF90EF90DF90C1
:1056C000CF90BF90AF909F908F907F906F905F90A2
:1056D0004F903F902F900895E218E82FEF718E2F92
:1056E00090E083319105B0F6FC01EA5AFF4F0C942B
:1056F0004D3689859A850E949422082F89859A853E
:105700000E947222182F89859A8514C0C2010E94B6
:105710007222182FC2010E94532A00E046EB5BE27E
:105720005DC0C3010E949422082FC3010E9472220F
:10573000182FC3010E94532AF1CFEF81F88583818E
:1057400010E000E045E65BE249C0AD81BE81119604
:105750008C9110E000E049E151E240C0EB81FC8116
:10576000808110E000E043E650E238C0A981BA81B0
:105770008C9110E000E049E150E230C09181892F26
:10578000880F890F923010F4908101C090E0890F4A
:1057900010E000E04BE15FE121C000E02DE73EE1D9
:1057A00047E05FE151C02CE63EE143EE5EE14CC0D4
:1057B000D50152968C91811130C06CCFF501828950
:1057C000823058F567CFD50152968C91833028F5F9
:1057D00061CF47E95DE280E010E000E0612F110F4A
:1057E000770B6E0D711DE7FC7A95002E000C110BE6
:1057F000282FC8018F0D911DF7FC9A950E94F32F59
:1058000049CF00E025EA3EE14FE45BE21DC010E035
:1058100000E080E04AE75DE2E1CF10E000E080E0F8
:105820004AED5EE1DBCF10E000E080E049E85DE2B8
:10583000D5CF00E029EB3EE143E95BE205C000E0A3
:105840002FE83EE149E35BE26E2DEE0C770BE12C95
:105850008F2DFF0C990B0E9475301CCFDC01119627
:105860007C936E9385E0869F9001879F300D112475
:10587000F901E15CF74EE4911396EC931397F9016B
:10588000E35CF74EE4911496EC93149712961C92F5
:105890000895CF93DF93EC0160E070E00E942E2C1E
:1058A0001A8219861A861B868881998125E0289F8D
:1058B000F001299FF00D1124E55CF74EE491EE8391
:1058C0008FEF8D8388E08887DF91CF910895FC0169
:1058D000DC01AA58BF4F1C9211971C92139681E0CD
:1058E0008C9311971C92139682E08C9311971C92C3
:1058F000118A128A138A8DE0848B138E158AEC58D4
:10590000FF4F84E080830895FC01E85AFF4F21E0B7
:105910002187B3961082319628EC20833596108229
:105920007797138210820480F581E02D82E08283D4
:1059300084E18083FB0182898150828B0895CF931B
:10594000DF9300D000D000D0CDB7DEB7DC018D9161
:105950009C91119725E0289FA001299F500D1124AB
:10596000FA01E55CF74E2491FA01E45CF74E4491AC
:105970001296EC911297F0E0EA5EF74EE4911496DD
:105980008C91481B4E1B30E03A832983042E000C77
:10599000550B5C834B833A815C8167E07BE080E060
:1059A00090E026960FB6F894DEBF0FBECDBFDF9114
:1059B000CF910895DC018D919C91119701961196DC
:1059C0009C938E9345E0489F9001499F300D112490
:1059D000F901E15CF74EE4911396EC931397F9010A
:1059E000E35CF74EE4911496EC930895DC018D91FD
:1059F0009C911197019711969C938E9345E0489F37
:105A00009001499F300D1124F901E15CF74EE491BA
:105A10001396EC931397F901E35CF74EE491149617
:105A2000EC9308953FB7F8948091770690917806AB
:105A3000A0917906B0917A0626B5A89B05C02F3FA4
:105A400019F00196A11DB11D3FBFBA2FA92F982FA4
:105A50008827820F911DA11DB11DBC01CD0142E01F
:105A6000660F771F881F991F4A95D1F708951F92D7
:105A70000F920FB60F9211242F933F938F939F9302
:105A8000AF93BF938091720290917302A0917402C0
:105A9000B09175023091760623E0230F2D3720F464
:105AA0000196A11DB11D05C026E8230F0296A11D78
:105AB000B11D209376068093720290937302A09397
:105AC0007402B09375028091770690917806A09148
:105AD0007906B0917A060196A11DB11D80937706D3
