:100000000C9402170C942A170C942A170C942A1794
:100010000C942A170C942A170C942A170C942A175C
:100020000C942A170C942A170C942A170C942A174C
:100030000C942A170C942A170C942A170C942A173C
:100040000C942A170C942A170C942A170C942A172C
:100050000C942A170C942A170C942A170C94A92A8A
:100060000C942A170C942A170C942A170C942A170C
:100070000C942A170C942A170C942A170C942A17FC
:100080000C9421210C942A170C942A170C942A17EB
:100090000C942A170C942A170C942A170C942A17DC
:1000A0000C942A170C942A170C942A175B297F2981
:1000B00079298B29E028ED28F8280429732991292A
:1000C0000C292C2934294B295129AD28B128B128D4
:1000D000B128852900000100000100000100000195
:1000E000FF0304FF0304FE0506FE0506FF0708FFE5
:1000F0000708070D06070D060B0E040B0E040D1066
:10010000010E100112120313120315140515140524
:100110001616071718070A0009000002000002005F
:100120000002000002000302000602000902000CA7
:1001300002000F0200120200140200000900000079
:1001400000000000000000000001030301030301A0
:10015000050501050501070701070701000945120B
:1001600004451404451604451804451A04451C04A6
:10017000451E044520044522044524044526044523
:100180002804452A04452C04452E044530044532F4
:10019000044534044334014134013F34013D350109
:1001A0003935013735013535013336013136012F07
:1001B00036012D36012B36992C13042C15042C17DF
:1001C000042C19042C1B042C1D042C1F042C2104AA
:1001D0002C23042C25042C27042C29042C2B042C40
:1001E0002D042C2F042C31042C33042C35012C37F6
:1001F000012937012737012537012337011F38012E
:100200001D38011B380119380117380115399912A9
:100210001304121504121704121904121B04121DE0
:1002200004121F04122104122304122504122704AD
:10023000122904122B04122D04122F04123104125D
:1002400033041235041237041239011139010F3900
:10025000010D39010B3A01093A01073A01053A014A
:10026000033A01013B01FF3D01FF3F01FF4101FF57
:100270004301FF4501FF4701FF4901FF4B01FF4DCE
:1002800001FF4F01FF5101FF5301015302035302CC
:100290000553020753020954020B54020D54020F76
:1002A00054021154021355021555021755021955DF
:1002B000021B55021D56021F5602215602235602EA
:1002C0002556022757022957022B57022D57022F76
:1002D00057023158023358023558023758023958FC
:1002E000023B59023D59023F59024159024359020A
:1002F000455A02475A02495A024B5A024D5A024F76
:100300005B02515B02535B02555B02575B02595C17
:10031000025B5C025D5C025F5C02615C02635D0229
:10032000645E02655F026561026563026565026580
:100330006702656902656B02656D02656F02657132
:10034000026573026373016173015F73015D740180
:100350005B7401597401577401557401537501514F
:1003600075014F75014D75014B7501497601477651
:10037000014576014376014176013F77013D7701E2
:100380003B770139770137770135780133780131CF
:1003900078012F78012D78012B79012979012779AE
:1003A00001257901237901217A011F7A011D7A0142
:1003B0001B7A01197A01177B01157B01137B01114F
:1003C0007B010F7B010D7C010B7C01097C01077C0B
:1003D00001057C01037D01017E0101800101820193
:1003E000018401018601018801018A01018C01005B
:1003F00000047F4A027D4A027B4A02794A02774A18
:1004000002754A02734A02714A026F4A026D49023A
:100410006B49026949026749026549006349006105
:1004200049005F49005D49005B4900594900574850
:10043000005548025348025148024F48024D4802B5
:100440004B48024948024748024548014347014199
:1004500047013F47013D47013B47013947013747C6
:10046000013547023347023147022F46022D46022B
:100470002B46022946022746022546002346002134
:1004800046001F46001D46001B4500194500174544
:10049000001545021345021145020F45020D4502A4
:1004A0000B450209450207440205440103440101CA
:1004B0004401FF4401FD4401FB4401F94401F744B8
:1004C00001F54401F34302F14302EF4302ED43021D
:1004D000EB430200000288011400AF00140000800A
:1004E0002C0032002100320037003200008010035F
:1004F0003200930232000B023200700332005D01C1
:10050000320026013200EE0132000080DC003200B1
:10051000B8013200700332000080E402F2010000F2
:100520009000E402220000004800E40222000000E3
:100530004800E402B10000006C00E4026900000021
:100540002400E4024600000048003F036900000068
:100550002400A403690000002400DC030A04000056
:10056000FB00DC0369000000240055044600000085
:100570004800DD0446000000480075055D020000EB
:1005800024007505220000004800750522000000C7
:100590004800750522000000B3005504B1000000BA
:1005A00024007505460000004800C80575000000DD
:1005B00018007D06690000002400C8056906008057
:1005C000AF00140088011400008010033200930271
:1005D00032000B023200700332005D01320026014E
:1005E0003200EE013200C4003200A5003200830068
:1005F0003200DC00320057003200490032007B003C
:1006000032007B003200000014007B00320000004A
:1006100014007B0032000080D5F08D14A1C881CF7A
:10062000D9F1AF2000FCFEFFFFFFFFFFFFFFFFFF40
:10063000FFFFFFFFFFFFFFFFFFFFFFFFFEFEFC07C7
:100640000F1F1F1F1F1F1F1F1F1F1F1F1F1F1F1FCA
:100650001F1F1F1F1F1F1F1F0F1A0D00FC02FAFA7A
:10066000AAAA02F2FA2AF202B2BAEA6A021AFAE272
:100670001A02FC00000007080A0A0A0A080A0A0906
:100680000A080A0A0A0908080A0A080807000000F6
:10069000FC02FAFA22FA02F2FA2AF202FAFA2AD250
:1006A00002FAFA8AF202FC00000007080A0A090AA4
:1006B000080A0A090A080A0A090A080A0A0A0A08A4
:1006C000070000FCFCFCFCFCFCFCFCFCFCFCFCFC57
:1006D000FCFCFCFCFFFFFFFFFFFFFFFFFFFFFFFF36
:1006E000FFFEFCF80101010101010101010101010D
:1006F00001010101010101010103070F0F0F0F0F9C
:100700000F0F070301210C000078281000782850F3
:100710000078580010482000104820000078FC8E17
:10072000D6DAD68EFC780000000000000000000041
:1007300000000000000000000000000000000102B6
:100740000505050505020100000408022905023E11
:1007500009093E3F25251A1E2121123F21211E3F56
:100760002525213F0505011E21293A3F04043F218B
:100770003F21001021211F3F040A313F2020203F4C
:1007800002023F3F02043F1E21211E3F0909061EAF
:1007900021112E3F09093622252519013F01011F8C
:1007A00020201F0F10201F3F10103F3B04043B036D
:1007B000043807312D23211E29251E223F20003217
:1007C0002929261221251A0C0A3F08172525191E4A
:1007D000252518013905031A25251A0629291EFC85
:1007E000FEFFFFFFFFFFFFFFFFFFFFFFFFFFFFFF1A
:1007F000FFFFFFFFFFFFFFFFFFFFFFFFFFFFFFFF09
:10080000FFFFFFFFFFFFFFFFFFFFFFFFFFFFFFFFF8
:10081000FFFFFFFFFFFFFFFFFFFFFFFFFFFFFFFFE8
:10082000FFFFFFFFFFFFFFFFFFFFFFFFFFFFFFFFD8
:10083000FFFFFFFEFEFCFFFFFFFFFFFFFFFFFFFFCD
:10084000FFFFFFFFFFFFFFFFFFFFFFFFFFFFFFFFB8
:10085000FFFFFFFFFFFFFFFFFFFFFFFFFFFFFFFFA8
:10086000FFFFFFFFFFFFFFFFFFFFFFFFFFFFFFFF98
:10087000FFFFFFFFFFFFFFFFFFFFFFFFFFFFFFFF88
:10088000FFFFFFFFFFFFFFFFFFFFFFFFFF0103076A
:1008900007070707070707070707070707070707E8
:1008A00007070707070707070707070707070707D8
:1008B00007070707070707070707070707070707C8
:1008C00007070707070707070707070707070707B8
:1008D00007070707070707070707070707070707A8
:1008E00007070703571300FC0202F2F2F282F2F24A
:1008F000F202F2F2F202C2E2F2121252624202F288
:10090000F2F282F2F2F20202E2F29292122202C2B7
:10091000E2F2321212722202C2E2F2125212F2E237
:10092000C202F2F2F21212F2F2E202F2F2F2929247
:100930001202E2F2929212220202FC000000FF0078
:10094000005F5F5F005F5F5F005F5F5F00172F5FAB
:1009500050515F2F5F005F5F5F005F5F5F002C5C47
:100960005151535F2E00172F5F585050582E0017CB
:100970002F5F5050505F2F17005F5F5F01015F5E78
:1009800058005F5F5F5052500C5C5151535F2E0016
:1009900000FF000000010202020202020202020243
:1009A0000202020202020202020202020202020227
:1009B0000202020202020202020202020202020217
:1009C0000202020202020202020202020202020207
:1009D00002020202020202020202020202020202F7
:1009E0000202020202020202010000FFFFFFFFFFFB
:1009F000FFFFFFFFFFFFFFFFFFFFFFFFFFFFFFFF07
:100A0000FFFFFFFFFFFFFFFFFFFFFFFFFFFFFFFFF6
:100A1000FFFFFFFFFFFFFFFFFFFFFFFFFFFFFFFFE6
:100A2000FFFFFFFFFFFFFFFFFFFFFFFFFFFFFFFFD6
:100A3000FFFFFFFFFFFFFFFFFFFFFFFFFFFFFFFFC6
:100A4000FFFFFFFFFFFFFFFFFFFFFFFFFFFFFFFFB6
:100A5000FFFFFFFFFFFFFFFFFFFFFFFFFFFFFFFFA6
:100A6000FFFFFFFFFFFFFFFFFFFFFFFFFFFFFFFF96
:100A7000FFFFFFFFFFFFFFFFFFFFFFFFFFFFFFFF86
:100A8000FFFFFFFFFFFFFFFFFFFFFFFFFFFFFFFF76
:100A9000FFFFFFFFFFFFFFFFFFFFFFFFFFFFFFFF66
:100AA000FFFFFFFFFFFFFFFFFFFFFFFFFFFFFFFF56
:100AB000FFFFFFFFFFFFFFFFFFFFFFFFFFFFFFFF46
:100AC000FFFFFFFFFFFFFFFFFFFFFFFFFFFFFFFF36
:100AD000FFFFFFFFFFFFFFFFFFFFFFFFFFFFFFFF26
:100AE000FFFFFFFFFFFFFFFFFFFFFFFFFFFFFFFF16
:100AF000FFFFFFFFFFFFFFFFFFFFFFFFFFFFFFFF06
:100B0000FFFFFFFFFFFFFFFFFFFFFF0303030303E1
:100B100003030303030303030303030303030303A5
:100B20000303030303030303030303030303030395
:100B30000303030303030303030303030303030385
:100B40000303030303030303030303030303030375
:100B5000030303482200FC06020202020202020210
:100B60000202020202020202020202020202020265
:100B70000202020202020202020202020202020255
:100B80000202020202020202020202020202020245
:100B90000202020202020202020206FC0000FF0040
:100BA0000000000000000000000000000000000045
:100BB0000000000000000000000000000000000035
:100BC0000000000000000000000000000000000025
:100BD0000000000000000000000000000000000015
:100BE000000000FF0000FF00000000000000000007
:100BF00000000000000000000000000000000000F5
:100C000000000000000000000000000000000000E4
:100C100000000000000000000000000000000000D4
:100C20000000000000000000000000FF0000FF8046
:100C300000000000000000000000000000000000B4
:100C400000000000000000000000000000000000A4
:100C50000000000000000000000000000000000094
:100C60000000000000000000000000000000000084
:100C7000000080FF000000010101010101010101EC
:100C80000101010101010101010101010101010154
:100C90000101010101010101010101010101010144
:100CA0000101010101010101010101010101010134
:100CB000010101010101010101010100000B08878F
:100CC0008F9DB7E7C7A5D7AF978D00000000000044
:100CD0000000000306090C0F1214FCFEFFFFFFFFCB
:100CE000FFFFFFFFFFFFFFFFFFFFFFFFFFFFFFFF14
:100CF000FFFFFFFFFFFFFFFFFFFFFFFFFEFC070FF0
:100D00001F1F1F1F1F1F1F1F1F1F1F1F1F1F1F1FF3
:100D10001F1F1F1F1F1F1F1F1F1F1F1F1F1F1F1FE3
:100D20000F07240D0000F80404040404F454240400
:100D3000E454E404F404F40424549404F454140433
:100D40000404040404F80000000003040404040480
:100D5000050404040504050404050404050504044D
:100D6000050505040404040404030000FCFEFFFF61
:100D7000FFFFFFFFFFFFFFFFFFFFFFFFFFFFFFFF83
:100D8000FFFFFFFFFFFFFFFFFFFFFFFFFFFFFFFF73
:100D9000FFFFFFFFFFFFFFFFFFFFFEFC070F1F1F0F
:100DA0001F1F1F1F1F1F1F1F1F1F1F1F1F1F1F1F53
:100DB0001F1F1F1F1F1F1F1F1F1F1F1F1F1F1F1F43
:100DC0001F1F1F1F1F1F1F1F1F1F0F07300D00009A
:100DD000F80404040404E414D404E454E404F424FF
:100DE000F404F454140404E414E404F404F404F4E3
:100DF000541404F454A40404040404F8000000008F
:100E0000030404040404040505040504050405049E
:100E1000050405050504040405040404050404058B
:100E20000505040504050404040404030000040487
:100E300006090F060A0F0F08090D0F0A090B0F0FFD
:100E400003020F0F070D0D0D0F0A0E0E010D0F03FC
:100E50000E0B0B0F07050F0F143E7E7F7F3F1E0CFE
:100E6000080700143C363A160C00FCFEFFFFFFFF9B
:100E7000FFFFFFFFFFFFFFFFFFFFFFFFFFFFFFFF82
:100E8000FFFEFC0001030303030303030303030347
:100E9000030303030303030303030100190A00FC14
:100EA0000202020202020202020202020202020222
:100EB0000202020202FC0000000101010101010125
:100EC0000101010101010101010101010101000014
:100ED000040406090F060A0F0F08090D0F0A090B73
:100EE0000F0F03020F0F070D0D0D0F0A0E0E010D50
:100EF0000F030E0B0B0F07050F0FFCFEFFFFFFFF8D
:100F0000FFFFFFFFFFFFFFFFFFFFFFFFFFFFFFFEF2
:100F1000FC3F7FFFFFFFFFFFFFFFFFFFFFFFFFFF24
:100F2000FFFFFFFFFFFF7F3F171000FC0202FA8266
:100F300002FAAA027A827A02FAAA02FA820202FC6F
:100F400000003F4040404040404040404040404022
:100F50004040404040403F0040E8FCFCFCFCFCDCE2
:100F6000BBFFFDFFFBB870F0F0F0F0702000000058
:100F7000000000000001010101010103030303035C
:100F800003010000002070F0F0F0F070BBFFFDFFE7
:100F9000FBB8DCFCFCFCFCFCE840000001030303A4
:100FA0000303030101010101010000000000000032
:100FB00090F8F8F8F8F8F8F8FBFFFFFFFBF8F8F8FE
:100FC000F8F8F8F8F89000010101010101010101B0
:100FD000010101010101010101010100160A0040A6
:100FE00048586858488890B3D5B390102060A060E6
:100FF00020200000000000000000000000000000B1
:10100000000101010101010000000000202060A09A
:1010100060201093B5D3B090884858685848400075
:1010200000000001010101010100000000000000BA
:10103000000000000000009090B0D0B0909090B3FD
:10104000D5B3909090B0D0B0909090000000000088
:101050000000000000000000000000000000000090
:1010600000001414000000C03804C27965515165B5
:1010700079C20438C000000038C40213E4E9A2D7E2
:1010800035E5E535D7A2E9E41302C438000C050ABA
:1010900008090D0A010101010A0D09080A050C00E1
:1010A00000000000C03844DAE5F9C5338A7488705E
:1010B0008000000000000043249B07069733793826
:1010C00010100080010608F000060D0F0700080947
:1010D000060D0F070008060908000E010000008039
:1010E0007088748A33C5F9E5DA4438C0000000001E
:1010F000F0080601800010103879339706079B240A
:1011000043000000010E000809060800070F0D0645
:10111000090800070F0D0600C03008087CF4C21D46
:101120002B416B412B9EC47C080830C00738C0128D
:10113000C4E8E2F7F56565F5F7E2E8C412C03807E0
:10114000000C050A08090D0B010101010B0D09082E
:101150000A050C00000000C0380402D9A511B11521
:10116000A1C20438C000000078848203CFCFECF124
:10117000E26466E4F2E9CCC703828478000C050AD5
:1011800008090D0B010101010B0D09080A050C00EE
:10119000000000C03804C2796551516579C2043835
:1011A000C000000070888403C4D982385482D6827B
:1011B000543881C403848870000C050A08090D0B9B
:1011C000020000020A0D09080A050C00000000C018
:1011D0003804C2796551516579C20438C0000000F5
:1011E00038C40213E4E9229745256525478229E49E
:1011F0001302C438000C050A0809080305080D0885
:10120000050308080A050C0000000000C02010902B
:1012100010C8A42272CAAA4A02E408F0001864881E
:10122000473079FEFC7132254A2C09877108040386
:101230000000000000020504080A05010101010088
:1012400000000000E8182090C8C8C424844830A0DA
:101250002020404040800000C38142BDDB5ABD6673
:10126000007EC37E81FF665A4224817E07080409FE
:101270000B0B0B0C090A0C0504040202020100000E
:10128000070B066B9DFBDE0A00000006040204004B
:1012900000009DFBDE0000000006040200000000CC
:1012A00000FB00000000000004000000000000003F
:1012B00000000000000004000000000000F8000032
:1012C000000000000000000000000003000000001B
:1012D000000000000000080CF4FEFEFFFFFFFEEC23
:1012E0000E0F0F0F0F0F0E0E080CECFEFFFFFFFE90
:1012F000FEF40E0E0F0F0F0F0F0E0ADFFFFFFFFFA2
:101300006F040607070706006FFFFFFFFFDF0A00F5
:10131000060707070604FFFFFFFFFFFFE6000207BF
:1013200007070600E6FFFFFFFFFFFF0006070707AE
:1013300002001FFFFFFFFFFF66000207070706000E
:1013400066FFFFFFFFFF1F000607070702001FFFE2
:10135000FFFFFFFF260406070707060026FFFFFF23
:10136000FFFF1F000607070706041FFFFFFFFFFF21
:10137000660006070707020066FFFFFFFFFF1F006A
:10138000020707070600FFFFFFFFFFFFE60406074F
:1013900007070702E6FFFFFFFFFFFF020707070738
:1013A0000604E2FFFFFFFFFF3A00060707070200FF
:1013B0003AFFFFFFFFFFE20002070707060056FEA5
:1013C000FEFFFFFFDE0000050F1F0F1DDEFFFFFF0A
:1013D000FEFE561D0F1F0F0500000A0D0000409471
:1013E000BCB6FAD68C4000000000000509050800D4
:1013F00000FE4094BCB6FAD68C40100700000005F1
:10140000090508000E0D000018ACF46C78A8000067
:10141000000000000008060B0701010000000000AA
:1014200000000000000080C0C0A070E0400000008C
:1014300000000A0A07030503050001000000008000
:10144000008000808080008040C080000000040296
:1014500000030709070F050E0300070B000ADEFB58
:101460009D6B0600040204060000066B9DFBDE0A6D
:1014700000000006040204004A1EDBFDEB264000CB
:101480000002040600004026EBFDDB1E4A000006B9
:10149000040200000A1EDBFDEB66000000020006ED
:1014A00000000066EBFDDB1E0A00000600020000E3
:1014B0000A1EDBFDAB260000040200060000002629
:1014C000ABFDDB1E0A000006000204000A1EDBFD65
:1014D000EB6600000006000200000066EBFDDB1E6C
:1014E0000A000002000600004A1EDBFDEB26400059
:1014F0000402000202004026EBFDDB1E4A0002024D
:10150000000204004022EBFBEB2210000006000268
:1015100000001022EBFBEB2240000002000600005E
:1015200054BCB6FAD60C00000005090508000CD61C
:10153000FAB6BC540008050905000000387CFEFF1F
:10154000FFFFFE7C380000000101010000000909D6
:1015500000385482D6825438000000000000000099
:10156000000000384CC29286643800000000000081
:10157000000000000038648692C24C380000000071
:101580000000000000000002040608090A0A0B0B14
:101590000C0C0C0D0D0D0D0D0D0D0D0D0D0D0D0C7F
:1015A0000C0C0B0B0A0908060402000B794A0118FF
:1015B0000D794A001C0F794A000C117849000C1370
:1015C0007849000C157849000C177849000C1978F7
:1015D00049000C1B7748000C1D7748000C1F77480A
:1015E000000C217748000C237748000C2576470033
:1015F0000C277647000C297647000C2B7647000C09
:101600002D7647000C2F7546000C317546000C33C3
:101610007546000C357546000C377546000C39745C
:1016200045000C3B7445000C3D7445000C3F74456F
:10163000001C417445001C437343001C4573430068
:101640001C477343000C497343000C4B7343000C5D
:101650004D7242000C4F7242000C517242000C530A
:101660007242000C557242000C577141000C5971C6
:1016700041000C5B7141000D5D714100055D6F3FE4
:101680000C035D6D3D0C035D6B3B0D035D69390D16
:10169000035D67370C035D65350C035D63330D0334
:1016A0005D61310D035D5F2F0C035D5D2D0C035DEE
:1016B0005B2B0D035D592900465B5929004E595893
:1016C00028004C575828004C555828004C5358288F
:1016D000004C515828004C4F5727004C4D572700BD
:1016E0005C4B5727005C495727005C475727005C35
:1016F000455626005C435626005C415626005C3F5A
:101700005626005C3D5626005C3B5525005C39554D
:1017100025005C375525005C355525005C33552583
:10172000005C315424005C2F5424005C2D542400B0
:101730004C2B5424004C295424004C275323004C98
:10174000255323004C235323004C215323004C1FCB
:101750005323004C1D5222004C1B5222004C1952A4
:1017600022004C175222004C155222004C135121DA
:10177000004C115121004C0F5121004C0D51210002
:101780004D0B512100490B4F1F0C030B4D1D0C033A
:101790000B4B1B0D030B49190D030B47170C030BC8
:1017A00045150C030B43130D030B41110D030B3FA8
:1017B0000F0C030B3D0D0C030B3B0B0D030B3909F9
:1017C0000D030B37070C030B35050C030B33030D0F
:1017D000030B31010D030B2F000C030B2D000C0329
:1017E0000B2B000D030B29000D030B27000C030D21
:1017F0002400002A0D2400000E0F2400000C1124E8
:1018000000000C132400000C152400000C17240009
:10181000000C192400000C1B2400000C1D240000E7
:101820000C1F2400000C212400000C232400000CB9
:10183000252400000C272400000C292400000C2B78
:101840002400000C2D2400000C2F2400000C312457
:1018500000000C332400000C352400000C37240059
:10186000000C392400000C3B2400000C3D24000037
:101870000C3F2400000C412400000C432400000C09
:10188000452400000C472400000C492400008C4B28
:101890002400008C4D21000B044F1F000B0C511E27
:1018A000000B0C531D000B0C551D000F00551D00A7
:1018B0000F00551D000F00551D000F00551D000F96
:1018C00000551D000F00551D000F005F15000F0093
:1018D0005F15000F005B150013005B150013005F20
:1018E000170014005F170014006419001400641935
:1018F0000014006419001400581D011400581D0242
:101900001400581D031400542A041400542A05140A
:1019100000542A06140058320714005832081400E4
:101920005832091400593409000059340901005B88
:10193000340903005D340905005F34090700613490
:101940000909006334090300653409050067340997
:10195000070069340909006B340903006D34090577
:10196000006F34090700713409090073340903005A
:101970007534090500773409070079340909007BBB
:10198000340903007D340905007F340907008134E0
:10199000090700551E000B00571F010B005B2103B8
:1019A0000B005D23050B005F26080B0061290B0B64
:1019B00000632C0E0B006530120B0067331510000E
:1019C0006933151100693315120069331512006966
:1019D000331512006933151200693315120069338B
:1019E000151200693315120069331512004D2400D9
:1019F0000B004F24000B005124000B005325000B5B
:101A0000005525000B005725010B005B26030B003A
:101A10005D26050B005F27080B0061280B0B006398
:101A2000290E0B00652B120B00672E151000693371
:101A30001511006933151200693315120069331549
:101A4000120069331512006933151200693315123B
:101A50000069331512006933151200C734090100FB
:101A60006334090100633409000063340900006134
:101A7000330902005F310904005D2E0906005B2C6A
:101A8000090800592A0902005728090400552609A7
:101A90000600532409080051220902004F210904BD
:101AA000004D220906004B240908004924090200C0
:101AB000472409040045240906004324090800417D
:101AC000240902003F240904003D240906003B24A8
:101AD00009080039240902003724090400352409C3
:101AE0000600332409080031240902002F240904C8
:101AF000002D240906002B240908002924090200CE
:101B000027240904002524090600232409080021AC
:101B1000240902001F240904001D240906001B22B9
:101B20000908001920090200171E080400151C07E7
:101B30000600131A0608001118050A000F16040AF9
:101B4000000F14030A000F13020A000F11010A000C
:101B50000D0F000A000B0E000200090E0004000722
:101B60000E000600050E000800030E000200030E22
:101B7000000C00030E000C00030E000D00030E000D
:101B80000D00030E000C00030E000C00030E000DF0
:101B900000030E000D00030E000C00030E000C00ED
:101BA000030E000D00030E000D00030E000C0003D9
:101BB0000E000200010E000400FF0E000600FD0EE4
:101BC000000800FB0E000200F90E000400F70E00F2
:101BD0000600F50E0008007924000004FFFFFFFF57
:101BE000FFFFFFFFFFFFFFFFFFFFFFFFFFFFFF0004
:101BF0000000000000000000F0F8F0F0F0F0F0F855
:101C0000F0140203030003030300030303000303B0
:101C10000300030303000307070007070700070784
:101C20000700070707000707070007FFFFFFFCFC87
:101C3000FCFCFCFFFFFFFFFFFFFFFFFFFFFFFFFFBD
:101C4000FF07070701010101010707072520000021
:101C50000000000000000000000000000000000084
:101C60000000000000000000000000000000000074
:101C70000000000000000000008040200C1A1ECC74
:101C8000C0828A36E48444A84818D09010202020CE
:101C90004040408080800000304848250204000019
:101CA00000000000000101030307070F0C1C183897
:101CB000337E78F4CAC582810E7CE0010100000009
:101CC0000000000000000000000000000000000014
:101CD00000000000000000000000010103030707EE
:101CE0000F0C0000000000000000000000000000D9
:101CF00000000000000000000000000000000000E4
:101D000000000000000000000000000000000000D3
:101D1000CC1A1ECCC0828A36E48444A84818D090DD
:101D20001020202040404080808000000000008083
:101D30004042340813200000000101030307070F8D
:101D40000C1C1838337E78F4CAC582810E7CE00101
:101D5000010000000102020100000000000000007C
:101D60000000000000000000000000000000010171
:101D7000030307070F0C0000000000000000000034
:101D80000000000000000000000000000000000053
:101D90000000000000000000000000000000000043
:101DA000000000000CDA1ECCC0828A36E48444A80D
:101DB0004818D090102020204040408080800000B3
:101DC000000000000000000000887B080001010303
:101DD0000307070F0C1C1838337E78F4CAC58281BC
:101DE0000E7CE00101000000000000000000010284
:101DF00002010000000000000000000000000000E0
:101E000000000101030307070F0C000000000000A1
:101E100000000000000000000000000000000000C2
:101E200000000000000000000000000000000000B2
:101E300000000000000000000C1ADE0CC0828A3690
:101E4000E48444A84818D0901020202040404080CE
:101E50008080000000000000000000000000002062
:101E6000139869058107070F0C1C1838337E78F426
:101E7000CAC582810E7CE001010000000000000064
:101E8000000000000000010202010000000000004C
:101E90000000000000000101030307070F0C000011
:101EA0000000000000000000000000000000000032
:101EB0000000000000000000000000000000000022
:101EC0000000000000000000000000000C1A1E4C82
:101ED000C0028A36A40444A84818D09010202020BC
:101EE00040404080808000000000000000000000B2
:101EF0000000000000080402056893876C0C183885
:101F0000337E78F4CAC582810E7CE00101000000B6
:101F100000000000000000000000000000000000C1
:101F2000000000000000000000000101030307079B
:101F30000F0C2518000000008040C08020A0A020C9
:101F40002020A020D0D09010101010109050906839
:101F500068C88808080808080800000000017B031A
:101F600001080C0D0F0E0D0E1D1818191B1E1C1A42
:101F70001D1A19181010303133363C38343A00002D
:101F80000000314F41200000000000000000000070
:101F90000000000000000000000000000000000041
:101FA0000000001C280000000000000000000000ED
:101FB00000000000000000008080C0C06060303081
:101FC000180000008080C0C060603030B8188C6C91
:101FD000E6C68383E119E4168C8C98587418B43CD7
:101FE00019012022261C1816090E090404040303F3
:101FF000030101010000000000887B0800000000D0
:1020000000000000000000000000000000000000D0
:1020100000000000000102020100000000000000BA
:1020200000000000000000000000000000000000B0
:10203000003F1000000000000000000000F018D871
:102040005818D8D818D8D818D8D818F87880C0C058
:10205000C0C0C0C0C0C0C0C0C0FE03DBDB03DBCB60
:1020600003DBDB03DB5B03FFFF000000000000007D
:102070000000200000202000202020203F003616F5
:10208000003636003632003636003F00361600364F
:1020900036003632003636003F0036320036360023
:1020A0003616003636003F3F20202000202020003A
:1020B00020130800007C544400781478004854240D
:1020C000000C700C000000007C107C00781478007C
:1020D0007C1468007C4438000009100000000000F7
:1020E00000000000F008D0D010101008F00C140010
:1020F000421000004410004008010020D089A8A828
:10210000A8A988B08CD3200002050B0F0A0A0A0A7E
:102110000502000088200000084200004410022050
:10212000D088A8A8A9A888B08CD3200002050B0FDE
:102130000A0A0A0A05020000820010440000104248
:1021400000080020D088A9A8A8A889B08CD32000B6
:1021500002050B0F0A0A0A0A0502000042100000DD
:1021600044100000084100408091285060115860E0
:10217000B18040000103070F0F0F0F07030100009C
:10218000882000000842000044100240809028503F
:1021900061105860B08140000103070F0F0F0F0757
:1021A00003010000410800001044000010420040FC
:1021B0008091285061105860B18040000103070FE2
:1021C0000F0F0F0703010000000000008040800097
:1021D000000000008040582E2F2F96954A80000363
:1021E000040A0A0D0D0D0E0E0B0503091000004820
:1021F000B0CCB0420000F008DFDB151B1F08F00078
:102200000080E862C0D00000F008DFD41B141F0873
:10221000F0000080E872C0D00000F008DFD41B148A
:102220001F08F0000002B058A4F00000F008DFDF43
:10223000151E1F08F0091B0000805C7B5C0000007D
:1022400006091020202010080000000000000000F7
:1022500000000000000000000000000000805C7B27
:102260005C00000006C91020202010080000FF00BC
:102270000000000000000401000000000000000059
:1022800000805C7B5C00000006C910A020201008C4
:102290000000FF00FF000000000004010401000036
:1022A0000000000000805C7B5C00000006C910A0FC
:1022B00020A010080000FF00FF00FF000000040144
:1022C000040104010000000000805C7B5C00000051
:1022D00006C910A020A010C80000FF00FF00FF00EA
:1022E000FF000401040104010401001A20000000A1
:1022F00000000000804018B4BC180008D0B0204096
:10230000808000000000006090904A0408010000F6
:10231000000003070C3973E898141415D3D6140C75
:102320001800000000000000000000000000000095
:10233000000103071C38F3CD940A0A0000000000D6
:10234000000000000000000000000000000000008D
:102350000001030F1E000000000000000000983480
:10236000BC180008D0B020408080000000000000B1
:102370000000008084681026010003070C3973E810
:1023800098141415D3D6140C18000000030404028A
:102390000000000000000000000103071C38F3CD1E
:1023A000940A0A0000000000000000000000000085
:1023B00000000000000000000001030F1E000000EC
:1023C00000000000000018B4BC180008D0B0204085
:1023D00080800000000000000000000000000000FD
:1023E00040DE43070C3973E898141415D3D6140C47
:1023F000180000000000000000000C13100800008E
:10240000000103071C38F3CD940A0A000000000005
:1024100000000000000000000000000000000000BC
:102420000001030F1E140201000000010000000162
:102430000000000100000001000000140302000081
:102440000002000000020000000200000002000084
:10245000000B0BF83878E8D0A000A0100C0C070493
:10246000040405070707000000F83878E0C8A44313
:102470008300000007040404050707070000000BA1
:102480001300FE48484848484848FE0000FF929222
:102490009292929292FF0000030000000000000060
:1024A00003001910010107050507030303030303D4
:1024B00003030303030303070505070404000000E7
:1024C000000000000000000000000000000000000C
:1024D00000000000000004040705050703030303D0
:1024E00003030303030303030307050507010100B7
:1024F00000000000000000000000000000000000DC
:1025000000000000000000000101070505070303AB
:102510000303030303030303030303070505070181
:1025200001000000000000000000000000000000AA
:102530000000000000000000000001010F0B0A0E67
:10254000060606040C0C0C08181818187050507069
:1025500040400000000000000000000000000000FB
:10256000000000000000000000000000004040707B
:1025700050507018181818080C0C0C040606060E9B
:102580000A0B0F0101000000000000000000000025
:102590000000000000000000000000000000010733
:1025A0000B0A0E06040C0C08181810303020E060DE
:1025B00040C000000000000000000000000000001B
:1025C0000000000000000000010101010100000006
:1025D0000000000000C04060E020303010181808F3
:1025E0000C0C04060E0A0B0701000000010101019A
:1025F00001000000000000000000000000000000DA
:10260000000019362C183060C08000000000000067
:1026100000000000000000000000000000000000BA
:1026200000000103066CD8B06080000000000000CC
:10263000000000000000000000000000000000009A
:10264000000000000080C06030182C361900000027
:10265000000000000000008060B0D86C060301009C
:102660000000000000000D08252D39312931252DED
:1026700039312931210C08627A7A62627A7A62628F
:102680007A7A620B08878F9DB7E7C7A5D7AF978D7A
:10269000181E1300190100050F0C18042418053C1E
:1026A00018060943001342001D4100274000313F36
:1026B000003B3E00453D00092F03152F01212F014E
:1026C0002D2F01392F01452F01174B01234B0157A6
:1026D00050015F50016B50017750016349016F4910
:1026E000017B49016B500E573F01633F016F3F0172
:1026F0007B3F01FB6C01166C01226C012E6C0132D8
:102700006C014F6C01005C000A5D00145E001E5FEE
:10271000002860003261003C6200466300506400A3
:102720005A65007170027D70020A85001484001ED3
:1027300083002882003281003C8000467F00507E6A
:10274000005A7D00647C00094A035B6A03FC2F0188
:102750000024070044891444882845883C46885052
:1027600047886448887849885B0A0A55000B007AD4
:102770000C007A4D000000387CFEFFFFFFFE7C3825
:10278000000000010101000000090900385482D650
:102790008254380000000000000000000000384CA7
:1027A000C2928664380000000000000000000000B3
:1027B00038648692C24C380000000000000000001F
:1027C0000003F70403F80403F90403FA0403FB0409
:1027D00003FC0403FD0403FE0403FF0403000403DD
:1027E00001020501020701020901020B01020D02AB
:1027F000020F020211020213020215020217030263
:102800001903021B03021D03021F030221040223FA
:1028100004022504022704022904022B05022D05C7
:10282000022F050231050233050235060237060282
:102830003906023B06023D06023F070241070243FA
:1028400007024507024707024908024B08024D08E4
:10285000024F0802510802530902550902570902A2
:102860005909025B09025D0A025F0A02610A0263FA
:102870000A02650A02670B02690B026B0B026D0B01
:10288000026F0B02710C02730D04730F04731104B9
:10289000731304731504731704731904731B0473FF
:1028A0001D04731F047321047323047123016F2318
:1028B000016D23016B240169240167240165240152
:1028C0006324016125015F25015D25015B25015917
:1028D00025015726015526015326015126014F2671
:1028E000014D27014B2701492701472701452701B2
:1028F0004328014128013F28013D28013B28013997
:1029000029013729013529013329013129012F2ACC
:10291000012D2A012B2A01292A01272A01252B0111
:10292000232B01212B011F2B011D2B011B2C011916
:102930002C01172C01152C01132C01112D010F2D29
:10294000010D2D010B2D01092D01072E01052F0170
:102950000531010533010535040537040539040542
:102960003B04053D04053F04054104010204081031
:1029700020408021080F0F08080006090B06000EF2
:1029800003030E000F090F06000F0F000F02030FC5
:10299000000E0F090D000E10BEBDBEBDBEBDBEBDFA
:1029A000BEBDBEBDBE00000400040004000400045F
:1029B000000400004E080F0D0702000F050F0A006B
:1029C0000F0D0900020B0D00020B0D0000000000AE
:1029D0000F0D0702000F0F0808000E03030E00037F
:1029E0000E0E0300000006090B06000F02030F0085
:1029F000000000010F0F010E03030E000F0D070270
:102A0000000F0D090E10A7C7A7C7A7C7A7C7A7C75D
:102A1000A7C7A7000707070707070707070707074D
:102A2000070024080E1F1F1F0E00000000000000FA
:102A3000000000001F0E0400000000000000000065
:102A4000040E1F00040E1F00FFFFFFFFFFFFFFFF2C
:102A5000FFFFFFFFFFFFFFFFFFFFFFFFFFFFFFFF86
:102A6000FFFFFFFFFFFFFFFFFFFFFFFFFFFFFFFF76
:102A7000FFFFFFFFFFFFFFFFFFFFFFFFFFFFFFFF66
:102A8000FFFFFFFFFFFFFFFFFFFFFFFFFFFFFFFF56
:102A9000FFFFFFFFFFFFFFFFFFFFFFFFFFFFFFFF46
:102AA000FFFFFFFFFFFFFFFFFFFFFFFFFFFFFFFF36
:102AB000FFFFFFFFFFFFFFFFFFFFFFFFFFFFFFFF26
:102AC000FFFFFFFFFFFFFFFFFFFFFFFFFFFFFFFF16
:102AD0004410000000000000BC7EC7EBEDEBC77E99
:102AE000BC00003C2C0038143800082410000438C6
:102AF00004000000000000BC7EC1D5D5D5CB7EBC53
:102B000000003C103C00381438003C1428003C24E1
:102B10001800000000000000000000000001020298
:102B2000020202010000000000000000000000009E
:102B3000000000000000000000000000010202028E
:102B40000202010000000000000000000000000080
:102B500000000000000000000000387CFEFFFFFFC6
:102B6000FE7C380000000101010000000909003866
:102B70005482D6825438000000000000000000009B
:102B800000384CC29286643800000000000000004B
:102B900000000038648692C24C380000000000003B
:102BA000000000000D08252D39312931252D39313E
:102BB000293121622BFC02FDFDFDFDFDFDFDFDFD2A
:102BC000FD02FDFDFDFDFDFDFDFDFDFD027C90E82E
:102BD000F4FAFDFDFDFDFDFDFDFDFDFDFAF4E890BF
:102BE000FC02FDFDFDFDFDFDFDFDFDF3CC02FDFD47
:102BF000FDFDFDFDFDFDFDFDFD02DCE8F4FAFDFD42
:102C0000FDFDFDFDFDFDFDFDFAF4E8D020C0000056
:102C1000000000000000000001FE00FFBF7F7F3FBA
:102C2000BFBFBC7E7F7FBF7FB7CB35C20202FF0034
:102C3000FFBF7FBF7FBFFF01FE0001FF7FBF7FBFE0
:102C40007FFF00FFFE00FFBF7FBF7FBFFF7FFFBF93
:102C50007CB07FBF7FBF7FBFFF00FE00FFBF7FBF95
:102C60007FBFFF00FE0EECAB6BAB6BAB6BEB0CF303
:102C7000000000000000000000F008F7B0DFAAD05C
:102C80008003354E7D6F15FAAFD5AAD7AED9B6F40D
:102C90000FF08F7AD5AAD5AADFB8D7B4D8AFD5AA06
:102CA000D5EA7D8FF00FF7B0DFAAD5AAD5AADFB09D
:102CB000F1079D7AD5AAD5AAD5AAFF00FF40BF6A21
:102CC000D5AAD5AADFB0D7B4D3BED56A350A959FA9
:102CD000809F8080000000000000003B78EABA3A44
:102CE0003A2ABA78B86B3A79EAB83A3A2ABA7ABA4A
:102CF0006A3A78EBB8393A28BA7ABA6A3A7AEABACA
:102D00003A3A28BA79B86B387AEABA3A3A2ABA7AA9
:102D1000BA6A3A78EBBA383A2ABA7ABA6A387BE8A9
:102D2000B8393A28BA7ABA6A3A3A0A00E01C82619B
:102D3000BCB2A8A8B2BC61821CE00000000404047C
:102D40000507060506050404040404050706050630
:102D50000504040404040507060506050404040428
:102D60000405070605060504040404040507060512
:102D70000605040404040405070605060504040406
:102D800004040507060506050400001C628109729B
:102D9000F4D16B9AF2F29A6BD1F4720981621C0041
:102DA0000000000000000000000000000000000023
:102DB0000000000000000000000000000000000013
:102DC0000000000000000000000000000000000003
:102DD00000000000000000000000000000000000F3
:102DE00000000000000000000000000000000602DB
:102DF000050404060500000000050604040502069B
:102E00000000332F11241FBECFEFDAE0DEBFCDBFAD
:102E100011E0A0E0B1E0E6E9F7E602C005900D920E
:102E2000AE33B107D9F726E0AEE3B1E001C01D92A1
:102E3000A935B207E1F717E1C2E0D7E104C0219755
:102E4000FE010E94BE33C130D107C9F70E94FD2F99
:102E50000C94C9330C9400002F923F924F925F92D2
:102E60006F927F928F929F92AF92BF92CF92DF929A
:102E7000EF92FF920F931F93CF93DF93CDB7DEB7FF
:102E800065970FB6F894DEBF0FBECDBF8C016B0106
:102E9000DB0117969C9017971896BC91BC8BFC0190
:102EA00082818111E8C07801F8E5EF0EF11CD701AD
:102EB00019963C903110DFC0980125583F4F398B4F
:102EC000288BD9018C91882359F1F601258136810F
:102ED00020FD83C7F70182818111E2C4D7011A96D0
:102EE0008C911A9781110FC21B969C9191110BC264
:102EF000D70113968C91B92DB074BB2E86FDE1C419
:102F0000B110EAC4B92CB5FCF3C4B4FCFEC4B7FCE0
:102F100002C5F801E258FF4F8081882309F400C5FB
:102F20002701F7018480D60115968C9180FFFAC1A4
:102F3000F8017196FB8BEA8BD80154968C918632FE
:102F400009F4F9C18F3309F437C78D3009F4D5C6B8
:102F5000BB24BA94863209F4D1C68F3309F4CEC6A5
:102F60008D3009F4CBC60E94823223E030E040E08D
:102F700050E00E94273398012E5A3F4F39016230AA
:102F800071058105910509F003C2332009F400C2DF
:102F9000F8017C9690E081E06E167F0609F0CEC1C4
:102FA000F801E058FF4F2081921708F4F4C1F601B0
:102FB0008581968166E070E00E949633892B41F40A
:102FC0005801FCE1AF0EB11CA614B70409F010C201
:102FD000D60152968C915297813009F4F7C2D601EE
:102FE00052968C918130A9F47801B5E5EB0EF11C75
:102FF000F7019081D3018C91890FF30190E0E415E2
:10300000F50509F058C3882309F461C3813009F438
:103010005BC3D60115968D919C9116978370992765
:10302000892B09F462C3F801838D882309F495C3C1
:103030008489863208F477C3873208F07EC3F801AA
:103040007C966E167F0609F00EC4D60115968D91FA
:103050009C91169766E070E00E949633892B09F4E4
:1030600009C4F601858196816CE070E00E94963378
:10307000892B09F40AC4D60150968C91509781117E
:1030800007C081E053968C93F801E558FF4F1082FA
:103090005801BCE7AB0EB11CF501F080F8E2FF1659
:1030A00009F478C0FF15C8F029E02F1548F032E088
:1030B000F31608F075C041E0F41609F476C098C024
:1030C00054E1F51609F46AC06EE1F61609F464C01D
:1030D0007AE0F7128DC081E01EC084E68F1560F0A3
:1030E0009DE3F916E8F4A2E3FA1609F451C0BCE333
:1030F000FB127EC086E00FC0E8ECEF1558F4F9EC47
:10310000FF1276C08FEFF801E358FF4F808381E014
:10311000359604C08FEFF801E358FF4F808368C0F5
:103120008FEFF801E358FF4F808381E0359680836D
:10313000D60150968C91882309F45AC060E070E063
:10314000C801885A9F4F0E94A029C8018E5A9F4FDC
:10315000F8017C96E817F90741F020812C3918F026
:103160001082138214823696F5CFF801EC58FF4F87
:103170008081811104C0C8010E94D92939C0F80199
:10318000118A128A138A8DE0848B138E158A30C0BF
:1031900085E0C1CF84E0BFCF83E0BDCF82E0BBCF6D
:1031A000F801E358FF4F108223C0D60150968C914E
:1031B000882349F0C801885A9F4F0E94BB29F80113
:1031C000E558FF4FF082F801E358FF4F1082369622
:1031D000108231971082719781E08283D801AE58B6
:1031E000BF4F8C91823010F48F5F01C080E08183EB
:1031F000F5018081882311F0815080837801FEE7FA
:10320000EF0EF11CD7018C91882311F081508C9323
:10321000D801A558BF4F8C91F6012389811142C076
:10322000211140C08C8980958921F82FF870DF2EFC
:103230008C7009F4D6C5F5018081853680F0C8010F
:103240008E5A9F4FF8017C96E817F90741F02081CC
:103250002C3918F01082138214823696F5CF81E053
:103260008C93F801EE57FF4F1082359710823696F7
:103270001082D5011C92C801885A9F4F0E94BB2919
:10328000F801E659FF4F138210820480F581E02D8A
:1032900082E0828384E18083DD2009F4A2C5F70106
:1032A00080839FC5D60118968C91189780951796A4
:1032B0009C9189232223F9F083FF93C565E0C60121
:1032C000459665960FB6F894DEBF0FBECDBFDF9171
:1032D000CF911F910F91FF90EF90DF90CF90BF9013
:1032E000AF909F908F907F906F905F904F903F90A6
:1032F0002F900C94392882FF74C5F801928181E0E7
:10330000892782836EC5F70193859111D3C28823E3
:1033100029F023703327232B09F43FC32701D7015A
:1033200014968C905801B4E6AB0EB11CF501858162
:103330008111FECD84C4BB24B394E0C42381222335
:1033400029F19F5F20812E3418F431813B1180E0F8
:1033500035EC320F383030F431813B1103C0B110FD
:1033600001C080E032EE320F383038F421812B1169
:103370000DC031E0B3120AC008C0283038F42181F2
:103380002B1104C042E0B41201C080E0369604CE96
:1033900090E080E005CE882309F409CE58015CE175
:1033A000A50EB11CA614B70409F401CED5011396DD
:1033B0008C9113978111B0C414968C918111ACC477
:1033C0000E94823223E230E040E050E00E94273346
:1033D000DC01CB010596A11DB11DF5018483F80127
:1033E000B08EA78A128A838B6CE3680F618BDFCD66
:1033F000D50113968C91882309F4E4C0E889F989F2
:103400008081882309F444C0D70112968C918823C7
:1034100009F43EC0D5012C91B3E02B9F90011124FB
:10342000F901E25AFE4F4491F901E15AFE4F24910D
:10343000D701ED91FC91B5E0BE9FB001BF9F700D2B
:103440001124FB01E555FA4E3491F7013683FB0157
:10345000E455FA4E9491E82FF0E0EA57FA4E849141
:10346000042E000C550BE32FF0E04E175F0781F49C
:10347000F7013481E92FE31BE81B0E2E000CFF0B34
:103480002819E21BF10927FDF39539970CF448C47C
:10349000C2010E94112A29833A834B835C836D8386
:1034A0007E83F5018081F3E08F9FC00111249C0190
:1034B000225A3E4FF9014491815A9E4FFC0144919A
:1034C000A889B9894C914423A9F1F9012491FC01FF
:1034D000F491FD8B222E220F3308C2010E94112A83
:1034E0002F83388749875A876B877C872F81388558
:1034F000A901460F511DC101029684179507D4F406
:10350000059628173907B4F43D883818832D330CF5
:10351000990B29853A85A901470F511DBA01AC01C4
:103520004E5F5F4F461757072CF407962817390749
:103530000CF445C4D5019C91B3E09B9FF00111248C
:10354000E05AFE4F84919F5F869586958695980FE9
:10355000F5019083F3E09F9FC0011124FC01E25A22
:10356000FE4F2491FC01E15AFE4F8491211106C0C7
:10357000811104C0D5011C9213961C92D501EC91C7
:10358000B3E0EB9FF0011124E05AFE4FE491E770A5
:10359000D5011596EC931597E13051F0E23091F496
:1035A00012968C91823010F48F5F0AC080E008C0C0
:1035B000D50112968C91882311F0815001C082E0D0
:1035C000F5018283F6E0AF0EB11CFECC15968D910D
:1035D0009C9116976AE070E00E949633892B09F05F
:1035E000FECC73014E145F0409F4F9CCF70180811D
:1035F000882309F45CC081818F5F8183F3E08F9F12
:10360000C0011124FC01EE50FC4F2491FC01ED504F
:10361000FC4F8491211106C0811104C0D7011C9276
:1036200011961C92E889F9898081882309F43FC0AA
:10363000D70111968C91B3E08B9FC0011124FC013E
:10364000EE50FC4FA490FC01ED50FC4F34900A2C3E
:10365000000CBB08C2010E94112A29833A834B83C4
:103660005C836D837E8389819A81AC01460F511DF5
:1036700095012F5F3F4F24173507CCF4E5E1AE0EDF
:10368000B11C8A159B059CF43818E32DF0E08B8162
:103690009C81AC01470F511D9F012C5F3F4F2417A8
:1036A00035072CF438968E179F070CF491C3F3E07E
:1036B000EF0EF11C97CF2081222321F02181921758
:1036C00008F4922F33969BCC933308F4A2CC0E943B
:1036D000823222E330E040E050E00E942733672B43
:1036E000682B692B09F435C394CCF801E659FF4FD8
:1036F0008081882309F497CC813091F41082138261
:103700000480F581E02D82E0828384E180838091D2
:103710003E01811188CC86ED94E00E94812183CC0A
:103720008150808380CC8E3098F48D3009F087CC26
:1037300088E0868B8EE0848B82CC8F3348F08F3389
:1037400009F07DCC84E0F801868B8EE3848B77CC06
:103750008A899B890E94352072CC8389882339F01D
:103760008150838B811134C088E2828B31C0F80193
:103770008289882369F18150828B811129C08489D3
:10378000863221F08F3321F080E003C081E001C058
:1037900082E0D8015796ED91FC9158972091040151
:1037A00030910501409106012D873E874F87DE014C
:1037B000A80FB11D1D969C919083818381E0838326
:1037C00080913E01811104C080EE94E00E9481212D
:1037D000F8018189882311F0815043C084898632A1
:1037E00071F020F48D3049F0F8F429CC8F33E0F0FB
:1037F0008F3309F024CC84E015C088E013C00E9408
:10380000823222E030E040E050E00E942733672B14
:10381000682B692B11F484E001C088E0D80156962A
:103820008C9302C0F801868B8A899B890E9435207F
:10383000D80154968C91863229F08F3319F08D304F
:1038400009F0FDCB0E94823222E830E040E050E0F7
:103850000E942733DC01CB018A5B9F4FAF4FBF4FE4
:10386000F801818BECCB8481882311F08150848313
:103870003696E7CBF801E059FF4F8081833010F492
:103880008F5F01C080E08083ECCBF801EF58FF4FE1
:103890008081823010F48F5F01C080E08083EBCBA9
:1038A000843220F48F5FF70182833ACBD7011296DE
:1038B0001C9236CBA90143705527452B09F462C0F1
:1038C00026CD95FE02C082FD37C0BB20E1F0F70196
:1038D000838183FD15C017C093FE32C087FF30C0BF
:1038E00081E0F7018287C7010E944C2AB12C0BCBE3
:1038F000F701838182FF45C2C7010E94682A41C245
:10390000C7010E94682AB92C00CBD70113968C916D
:1039100081FD30C0FCCAF701838180FD2FC0F9CA48
:10392000B3FEFECAD70113968C9184FFF9CA81E0D9
:10393000D70112968C93F4CAC7010E944C2AC5CFB6
:1039400083FFE0CAD7018D919C911197843991052D
:1039500069F481E01B968C936AED70E0C7010E94C8
:10396000A0298AEC95E00E948121CCCAC7010E945F
:103970004C2AC8CAC7010E94682AC9CAC7010E9446
:103980004C2AC7CAF701808191818E3E910599F535
:10399000B601C8010E94F629C3CAD60152968C917D
:1039A000813009F44AC144E0D7018D919C915801BE
:1039B000B4E6AB0EB11CF5012181BC01605A71095E
:1039C00067327105E0F08B3A910509F4CFC008F039
:1039D00061C0833A910509F4B3C008F04CC088393E
:1039E000910509F48AC08F39910509F49BC0873984
:1039F000910509F474C0C7010E944C2A91CA7096BF
:103A000030813111E0CFD801AB58BF4F3C91E1E09C
:103A1000E30FEC9311965C911197513089F048F0C7
:103A20005230C1F473E0E79FF0011124EA52FF4FD6
:103A30000DC053E0E59FF0011124E15CFE4F06C08C
:103A400063E0E69FF0011124E55EFE4FE491E9306A
:103A500009F43C931296E889F989EA17FB07B1F655
:103A6000D80155963C9155973F3008F0ACCF3F5F59
:103A700055963C93A8CF853A910509F472C008F495
:103A800090C0883A910509F0B6CFC7010E944C2A30
:103A900085E083C0893D910509F47ACF88F4873B9E
:103AA000910509F46AC0873C910509F481C08E3AFA
:103AB000910509F0A0CFC7010E944C2A89E06DC092
:103AC0008333B1E09B0709F48AC08A33E1E09E07A3
:103AD00009F46EC08732914009F486C08CCF24303F
:103AE00008F489CF421708F486CF81E0D5011596F6
:103AF0008C93C7010E944C2A7ECF233010F04217CE
:103B000040F468EC70E0C7010E94A0298AEC95E0BF
:103B100041C0C7010E944C2A84E0F501818381E005
:103B20008583FEC9C7010E944C2AD50111961C92BB
:103B300081E0F801838F84E6818B128A138AF0C9B1
:103B4000C7010E944C2A81E0D50111968C93F8019F
:103B5000EC58FF4F8081882309F4E2C981508083AB
:103B6000DFC9C7010E944C2A82E004C0C7010E943D
:103B70004C2A88E0F5018183D3C9F801EC58FF4F46
:103B80008081811138CF60EF70E0C7010E94A029C9
:103B90008AE195E00E948121C3C9D50111968C93D9
:103BA000BFC9F6018685978544969787868723CF78
:103BB00088ECF801E458FF4F8083729713821082DB
:103BC0000480F581E02D82E0828384E18083F80126
:103BD000EE57FF4F1082A889B9891C92A1C9F8013C
:103BE000EF58FF4F128207CFF60186859785C29660
:103BF0009787868781898F5F818BC7010E944C2AB6
:103C0000F801E058FF4F8081893010F48F5F808386
:103C1000F801EF57FF4F6081862F90E089359105BD
:103C20000CF07EC96E5F608370E088EE93E00E94C6
:103C3000AA33D60119966C9373C943E0B5CEF5014A
:103C400092819230A9F5F50120818181222371F0C2
:103C5000215020838350853008F06AC984818230E6
:103C600009F466C9C5010E94432062C98830D9F0B1
:103C700018F4833088F45CC9893009F059C99483F9
:103C80008AE08083128254C9F5018181883099F1DC
:103C900040F1893009F04CC988E0D50111968C9328
:103CA000119784E116C089E0F501818384E107C0A2
:103CB000933039F4F5018081882369F08150808345
:103CC00037C9913009F034C9D5018C918823E1F2CC
:103CD00081508C932DC9C5010E9443208AE0D501F3
:103CE000F8CF833008F424C982E084838AE080839B
:103CF00083E082831DC985E0D7CFB12CD8015396CC
:103D00008C91811130C933243394F801828988233E
:103D100009F429C9312C27C9F6E0AF0EB11C42CBFA
:103D2000D50111968C91833008F0B2CBEFEFD5011D
:103D30001196EC93D6011E968D919C911F9701963A
:103D40001F969C938E931E978CE095E00E94812194
:103D50009FCBF3018081882339F0F701808188238C
:103D600011F08FEF01C081E090E0FC01EE0FFF1F2A
:103D7000E80FF91FE00FF11FEE5AFF4F81E080833B
:103D800048C9D70113968C9185FFBFC8F801E65941
:103D9000FF4F83818111B9C881E083839CE89083C0
:103DA000F801EC59FF4F1582828384E1808380EC17
:103DB00095E00E948121A9C882E0B82E9FCFB6016C
:103DC000C8010E94F6298EEE94E00E948121B2CBB8
:103DD000B601C8010E94F6296ACC2701F701848048
:103DE000A7C865960FB6F894DEBF0FBECDBFDF91B2
:103DF000CF911F910F91FF90EF90DF90CF90BF90E8
:103E0000AF909F908F907F906F905F904F903F907A
:103E10002F90089580914602E0914402F09145026E
:103E2000882349F0CF010296909345028093440283
:103E3000859194910895CF010296909345028093C5
:103E4000440280819181089508952F923F924F926C
:103E50005F926F927F928F929F92AF92BF92CF921A
:103E6000DF92EF92FF920F931F93CF93DF9300D0D7
:103E700000D000D0CDB7DEB78C013B018EE0FB0156
:103E80008187F801108E118E84E6828FFB01828972
:103E9000F801838FFB01468457844114510409F4CF
:103EA0004FC0882329F029EDA22EBB24B39404C06F
:103EB00097ECA92EBB24B3946501312CC6010E9456
:103EC000F1324816590640F43394F6E0CF0ED11C77
:103ED00083E03812F3CF34C045019CE0890E911C79
:103EE00082E0282EFE0131967F013214B0F42A942C
:103EF000B501F6E02F9E600D711D112446E050E0E3
:103F0000C7010E94D93246E050E0B401C7010E94C7
:103F1000F73286E0881A9108E8CF86E0F70111921F
:103F20008A95E9F78FE38B838C838D835A8249824C
:103F300046E050E0B601C7010E94F732832D01C070
:103F40008FEFF801878BF3011086178242E150E072
:103F500067EC71E0C8014C960E94D93242E150E012
:103F600069ED71E0C8018E960E94D93226960FB68F
:103F7000F894DEBF0FBECDBFDF91CF911F910F919F
:103F8000FF90EF90DF90CF90BF90AF909F908F9079
:103F90007F906F905F904F903F902F900895FC011D
:103FA0008181813099F050F08230C9F4E08183E062
:103FB000E89FF0011124EA52FF4F0FC0E08183E037
:103FC000E89FF0011124E15CFE4F07C0E08183E02F
:103FD000E89FF0011124E55EFE4F8491089580E092
:103FE0000895FC018181813099F050F08230C9F44C
:103FF000E08183E0E89FF0011124EB52FF4F0FC0F6
:10400000E08183E0E89FF0011124E25CFE4F07C0ED
:10401000E08183E0E89FF0011124E65EFE4F849189
:10402000089580E00895FC018181813099F050F07D
:104030008230C9F4E08183E0E89FF0011124EC5262
:10404000FF4F0FC0E08183E0E89FF0011124E35CA3
:10405000FE4F07C0E08183E0E89FF0011124E75E96
:10406000FE4F8491089580E00895FC01858184309D
:1040700019F0883021F008958381815002C0838136
:104080008F5F83830895FC018381843019F0883029
:1040900061F017C08481882321F0853090F481502D
:1040A0000DC081E0848388E00BC08481843028F0D7
:1040B000843039F493E0948303C08F5F848301C01C
:1040C000838381818350853018F484818D5F81835F
:1040D0000895E1E7F0E080818D7F80831092910068
:1040E0004698479810923E010895CF92DF92EF9242
:1040F000FF920F931F93CF93DF930E940A1F8115A6
:1041000020E8920751F4DF91CF911F910F91FF901A
:10411000EF90DF90CF900C94692021E020933E0136
:10412000813020E8920751F480914202909143023D
:1041300090934502809344020E940A1F97FD05C098
:1041400020914102222309F440C020914002211114
:104150003CC021E020934702EC01DF77209769F40F
:1041600081E08093480246983FE9C32E3FE0D32E7A
:10417000E12CF12CCAEFD0E014C08E0120E030E039
:1041800060E472E48FE090E0A90198010E94273377
:1041900069017A0181E0C81AD108E108F10810929A
:1041A0004802E0915606F09157060995811103C027
:1041B00081E08093480280914702882309F43FC040
:1041C0008091480281113BC003C010924702C4CFC6
:1041D000469935C0479A0E940A1F009771F09C01CA
:1041E000DE010E947B33DC01CB0129E0B595A79568
:1041F000979587952A95D1F703C08FEF9FEFDC0144
:10420000109290002AE020939100D0929900C092E1
:1042100098008093490290934A02A0934B02B09376
:104220004C0280917100826080937100DF91CF9188
:104230001F910F91FF90EF90DF90CF9008954798D6
:10424000CACF1F920F920FB60F9211242F933F9354
:104250004F935F936F937F938F939F93AF93BF938E
:10426000EF93FF938091490290914A02A0914B02F3
:10427000B0914C02892B8A2B8B2B81F180914802C3
:1042800081110BC098B180E4892788B980914702D9
:10429000882319F088B1805888B98091490290919B
:1042A0004A02A0914B02B0914C02181619061A0648
:1042B0001B06B4F48091490290914A02A0914B02EE
:1042C000B0914C020197A109B109809349029093E2
:1042D0004A02A0934B02B0934C0202C00E94752088
:1042E000FF91EF91BF91AF919F918F917F916F91CE
:1042F0005F914F913F912F910F900FBE0F901F90A4
:1043000018959C01E1E7F0E090819D7F908381E02A
:104310008093460230934502209344023093430237
:10432000209342020C9475202F923F924F925F92FD
:104330006F927F928F929F92AF92BF92CF92DF92B5
:10434000EF92FF920F931F93CF93DF93CDB7DEB71A
:1043500027970FB6F894DEBF0FBECDBF4C012B01DF
:104360005C0128E5A20EB11CD5011496DC90FC017D
:10437000E558FF4FFF83EE838081811110C038968E
:10438000108111110DC0DB0115968D919C9116972E
:1043900068E270E00E94963311E0853108F410E085
:1043A00040E0B201C4010E9450281401B2E52B0E76
:1043B000311C3401ECE16E0E711C2614370439F106
:1043C000D30113968C9113978823E9F06C91B3E095
:1043D0006B9FB0011124FB01E25AFE4F8491FB0157
:1043E000E15AFE4F64916D19062E000C770BE12CFB
:1043F000F30102812CE335E14EE455E1082E000C77
:10440000990B0E94EB2DF6E06F0E711CD6CFAE819A
:10441000BF818C91811107C0F401E458FF4F808166
:10442000882309F4C4C0F5018081918145E0489F4B
:104430009001499F300D1124F901E255FA4EF49094
:10444000D50112969C91129791113BC0F11048C072
:1044500016964C91169715968C911597481307C090
:10446000FF24F39418968C918430D1F535C08417CD
:10447000A4F4F50187818F5F878348E0408780310E
:1044800009F41782D5011796FC90F694F694EF2D57
:10449000EE0F63E0F62EFE0E23C048170CF5F50173
:1044A00087818F5F878344E04087803109F41782DA
:1044B000D5011796FC90F694F694FF0CF394F394C0
:1044C0000FC0F50146818581481306C08085843080
:1044D00029F05BE0F52E04C0F12C02C04AE0F42E76
:1044E000D50116968C91169715968C931597F90110
:1044F000E555FA4E8491F5018683F901E455FA4EAB
:104500006491E92FF0E0EA57FA4EE49114969C91F9
:10451000691B6E1BB2E1BF1520F0E0E1FE1658F0FA
:104520002BC0F4E1FF1578F12DEEF20E20E030E023
:104530004AED53E12CC0643209F07AC193EF980F31
:104540009F3308F075C124E0F21609F49DC12F15C0
:1045500038F0FF2009F498C192E0F91291C194C19A
:10456000A8E0FA1609F490C1BAE0FB1609F48CC170
:10457000E6E0FE1285C188C1F0EFFF0E20E030E0DA
:1045800044E054E104C020E030E040E050E0F401B9
:10459000E458FF4F90819A509B3530F4D2015396E6
:1045A0009C91992309F459C1112309F446C1F401DE
:1045B0003489938D8589992331F0E82FF0E0E65313
:1045C000F34FE49101C0E0E0ED19ED5F8D3030F084
:1045D0008F3018F18F3011F4F8E020C0363249F0F6
:1045E00020F43D3031F088F41FC03F3370F03F338A
:1045F000D9F4D40152968C91882391F06AE00E94FC
:104600008A3396E0981B9D830FC0D40156968C91F7
:10461000883041F4B2E0BD8307C0F7E0FD8304C0F9
:104620001D8202C021E02D836E2FEE0F770B2D81AE
:1046300042E650E1832F90E00E94692DD20152960C
:104640008C91813051F52A143B0439F1F1018081BC
:104650008823F9F00181F3E00F9F80011124F80114
:10466000EE50FC4F8491F801ED50FC4F6491F8013D
:10467000EC50FC4F04916D19062E000C770BE02EC8
:1046800028E53FE04CED5FE0082E000C990B0E94FE
:10469000EB2D23E0220E311CD6CF40E4B201C40141
:1046A0000E945028D20153968C9181113DC0F40193
:1046B000EE57FF4F8081882309F442C0E12C00E0CF
:1046C0002AEF3EE048E25FE06EE170E082E090E0D9
:1046D0000E94EB2DF2011189812F64E60E948A333A
:1046E000282F40ED5EE067E270E086E090E00E94F7
:1046F000692D2AE0812F622F0E948A33192F0E9490
:104700008A33292F40ED5EE067E270E08BE090E0B5
:104710000E94692D212F40ED5EE067E270E080E1AC
:1047200090E00E94692D1DC0E12C00E02CE63DE0E8
:104730004CEC5DE067E170E087E290E00E94EB2DD9
:10474000D40112968C91882361F0E12C00E02AEDCF
:104750003CE042E25DE067E170E08EE290E00E94C2
:10476000EB2DE12C00E02AE63EE04CE95EE060E063
:1047700070E086E690E00E94EB2DF20180898330A4
:1047800050F028E53EE040E65EE06AE070E086E654
:1047900090E00E94EB2DD20150968C91823060F017
:1047A000E12C00E028E53EE040E65EE06AE070E0F3
:1047B0008EE690E00E94EB2DF2018089882361F063
:1047C000E12C00E028E53EE040E65EE06AE070E0D3
:1047D00086E790E00E94EB2D19821A821B821C82D0
:1047E000D2011E968C911E971F969C91FE013196C8
:1047F0005E01B5E0AB0EB11C2AE030E0B9010E94C9
:1048000096338193CB01EA15FB05C1F709E610E069
:10481000F50122915F014EE25EE063E070E0C801C5
:104820000E94692D0B5F1F4F0D37110589F749C095
:104830002AEF32E14AE554E1AACE062E000C770BAE
:10484000082E000C990B2115310511F42F2D15C0E0
:10485000EF2C0F2D0E94EB2DAACEF401E358FF4F51
:1048600020812F3F09F4A3CE2150062E000C770B98
:1048700040E852E1082E000C990B0E94692D97CE5A
:104880009FEF48EE52E103C090E046ED52E1682E02
:10489000880F77088BEFC82EE12C00E010E020E0B5
:1048A00063E270E0D301A90FB11D97FDBA95CD0168
:1048B0000E94F32A2F2D4AE554E164E270E0C3011F
:1048C000DCCF27960FB6F894DEBF0FBECDBFDF91C9
:1048D000CF911F910F91FF90EF90DF90CF90BF90FD
:1048E000AF909F908F907F906F905F904F903F9090
:1048F0002F9008955F926F927F928F929F92AF92C6
:10490000BF92CF92DF92EF92FF920F931F93CF93BC
:10491000DF93EC01635F7F4F7C013AE6E30EF11C0D
:10492000D70112967C936E9311977A8F698F8C5969
:104930009F4F15969C938E9314970C970E94BB29BA
:10494000FE01EF58FF4F81E0828372968083329799
:1049500083E480838E0100581F4F84E0F801808338
:10496000349789EC8083D70113961C9213971C927D
:104970001496ED91FC91159782E0828384E1808307
:10498000FE01EE57FF4F10827E01BBE7EB0EF11CDC
:10499000F7011082CE010E94D929CE018E5A9F4F75
:1049A000FE017C968E179F0759F4712C8BE4882E9C
:1049B000912CA12CB12C96E0592E6624639424C02E
:1049C0001082138214823696EDCF791641F1848DD0
:1049D000681708F5861B8E3010F50E948232A501FB
:1049E00094010E942733645CF8012081FE0190E06D
:1049F0009213EBCF5C9CF0015D9CF00D1124EC0F49
:104A0000FD1F648F678E7394D8018C91781650F4D3
:104A1000C72CD12CE2CF362F381B832FDCCF9F5FE2
:104A20003696E6CFD7011C9285E0F80180831A8282
:104A3000DF91CF911F910F91FF90EF90DF90CF907A
:104A4000BF90AF909F908F907F906F905F900895F0
:104A50002F923F924F925F926F927F928F929F928E
:104A6000AF92BF92CF92DF92EF92FF920F931F937C
:104A7000CF93DF93CDB7DEB728970FB6F894DEBF9C
:104A80000FBECDBF5C018B01FC01838D65018111DF
:104A900004C0FCE1CF0ED11C03C02EE2C20ED11C1B
:104AA000F80145805680EAE08E2E912CF3E0EF2E3F
:104AB000F12C20E04DEB5CE0B401C7010E94692DB0
:104AC000FAE0EF0EF11C2FEF821A920A31E7E3169B
:104AD000F10479F766E3862E912C7FE0E72EF12C26
:104AE00020E04DEB5CE0B401C7010E94692D8AE033
:104AF000E80EF11C91E0891A9108EDE7EE16F10439
:104B000079F7A5014C5E5F4FF5016189C8010E94EC
:104B1000F027A5014B5E5F4FF5016289C8010E9435
:104B2000F027A5014A5E5F4FF5016389C8010E9425
:104B3000F027F8018581968165E070E00E94963348
:104B4000892BC9F4F50181898D3810F48F5F01C07C
:104B500080E0F501818B82898D3810F48F5F01C070
:104B600080E0F501828B83898D3810F48F5F01C05E
:104B700080E0F501838BE12C00E02BEE39E043E58A
:104B80005BE062E170E08DE190E00E94EB2D2FEDA3
:104B900037E044EE58E063E070E086E190E00E9488
:104BA000EB2D760108E110E03E01F7E06F0E711C7D
:104BB0009E012F5F3F4F1901C701029698878F838F
:104BC00054E2852E912CEF81F8852191F887EF83AF
:104BD0002F3311F0205401C020E049E457E0B80120
:104BE000C4010E94792DF6E08F0E911C26E38216F7
:104BF000910449F778866F8241E4842E912CF1016B
:104C000026E011922A95E9F7F70180819181F1015F
:104C10006AE070E00E9496338193CB016E167F06A6
:104C2000B9F7EF81F8852291F887EF83255E49E493
:104C300057E0B801C4010E94792DF5E08F0E911C58
:104C40002FE582169104D9F6075F1F4F36E0E30E79
:104C5000F11C0333110509F0AFCFF50107890F3FB0
:104C600009F46BC0C20168E270E00E94963385319E
:104C700008F463C0C601F6E00F9F800D911D11245A
:104C80009C012E5F3F4F290139E0039F80011124D1
:104C9000480187E1880E911CF501608CF6E06F9E5B
:104CA00030011124730123E2E20EF11C39E2630E9C
:104CB000711C015E1F4F6E147F04F1F0640197FEBA
:104CC00002C0C12CD12CC8010134110514F080E4BC
:104CD00090E0C816D90664F480E8E816F10424F4DC
:104CE000B601C7010E94DE279FEFC91AD90AEBCF90
:104CF000EFEFEE1AFE0ADFCFF501808DF201E80F2B
:104D0000F11D20812F3311F0205401C020E0F50166
:104D10006789F9E06F9FB0011124685E7F4F36E02C
:104D2000839FC00111243BEFC32EE12C00E010E073
:104D300049E457E084960E94F32AF50187898F3F62
:104D400079F4828D81110CC0E12C00E023EC36E077
:104D500045E057E065E370E080E390E00E94EB2DD2
:104D6000E12CF501038D25E236E049E556E06BE1E3
:104D700070E082E090E00E94EB2D28960FB6F89448
:104D8000DEBF0FBECDBFDF91CF911F910F91FF907E
:104D9000EF90DF90CF90BF90AF909F908F907F90DB
:104DA0006F905F904F903F902F900895CF92DF9239
:104DB000EF92FF921F93CF93DF93EC01DB011796E5
:104DC0001C9117978B8DFE01811102C07C9601C04A
:104DD000BE962F892F3F09F47FC015968D919C9127
:104DE00016976CE070E00E9496337C01892B09F0E5
:104DF00088C036E0239FE00DF11D1124329617FF85
:104E000019C0888DDF01A80FB11D8C918F5F8C9325
:104E1000888DDF01A80FB11D8C918B3514F081E4D2
:104E20008C93888DDF01A80FB11D8C91803411F413
:104E300081E48C9314FF10C0888DDF01A80FB11D91
:104E40008C9181508C93888DDF01A80FB11D8C91BE
:104E5000813414F48AE58C9315FF05C0888D88236E
:104E600011F08150888F16FF05C0888D823010F4B4
:104E70008F5F888F13FF45C080818F3309F441C055
:104E800081818F3309F43DC082818F33D1F16F016D
:104E9000F60161916F012F898B8D882319F089EDBF
:104EA00091E002C087EC91E0F6E02F9F800D911D0C
:104EB000112497012E5F3F4F820F931F0E940733EB
:104EC0003FEFE31AF30A43E0E416F10409F78FEF2A
:104ED0008F8B84E68A8F15C018969C9118979095B1
:104EE00091239C7041F08A8D811105C062E0CD0153
:104EF00045960E94392815FD1B8E16FF02C081E0E1
:104F00008B8F1076898D1036E1F58F5F898F853113
:104F100008F445C08D3310F18D3309F040C0198E6F
:104F200083E884BD8FEF87BD81EF8093800010926E
:104F3000880010928A000E94F82E42E150E067EC4F
:104F400071E0CE014C960E94D93242E150E069ED09
:104F500071E0CE018E960E94D93221C020E430E06B
:104F6000F901E81BF109CF01880F93E894BD9FEF89
:104F700097BD91EF909380001092880080938A00F3
:104F80000EC0882361F083E884BD8FEF87BD81EF79
:104F9000809380001092880010928A00198E8A8D6A
:104FA000882311F081508A8FDF91CF911F91FF905C
:104FB000EF90DF90CF9008950E94C433EBE6F9E2C2
:104FC00090E1969FD001A0781124A80F6770E60F9A
:104FD000F11D9491AF5ABD4F8C91982B9C930895DD
:104FE000EF920F931F93CF93DF93EA0143E0649F07
:104FF00090011124F901EF53F84D1491F901EE538A
:10500000F84D4491F901ED53F84D2491FC0185814F
:10501000968165E070E00E949633892B99F42130E7
:1050200049F0223079F48881823010F48F5F08C013
:1050300080E006C08881882311F0815001C082E0A1
:10504000888315C0243099F400E0642F440F770B57
:10505000E12C27E737E249E857E2812F90E00E94F0
:10506000EB2DDF91CF911F910F91EF900895088163
:10507000ECCF1F93CF93DF93EC01162F83E884BD11
:105080008FEF87BD81EF809380001092880010928F
:105090008A000E9469201883DF91CF911F910895A3
:1050A0002F923F924F925F926F927F928F929F9238
:1050B000AF92BF92CF92DF92EF92FF920F931F9326
:1050C000CF93DF93CDB7DEB72A970FB6F894DEBF44
:1050D0000FBECDBF2B01342EFC01E85AFF4F2480B8
:1050E00020E9C22E26E2D22E5C0121E7A20EB11CDD
:1050F000DC01A059BF4FBA83A9837C96FC83EB8364
:105100009C012C593F4F3E832D831697B887AF8360
:105110004C01B9E78B0E911C3C01E7E76E0E711C48
:105120002F5E3F4F3A872987F601F4903196E4903D
:1051300031968491E491311003C0E6FF06C011C09E
:10514000F0E43F120EC0E6FF0CC0D20152960C9163
:10515000013049F1E7FD05C026C0F50182818111CA
:105160008BC0F3E0CF0ED11C24E737E22C153D05B0
:10517000D9F680E02A960FB6F894DEBF0FBECDBFF9
:10518000DF91CF911F910F91FF90EF90DF90CF9023
:10519000BF90AF909F908F907F906F905F904F9057
:1051A0003F902F900895E218E82FEF718E2F90E036
:1051B00084319105B0F6FC01EA5AFF4F0C94BE33DE
:1051C00089859A850E941320082F89859A850E94D7
:1051D000F11F182F89859A8514C0C3010E94F11F01
:1051E000182FC3010E94CF1F00E042EA54E268C0BA
:1051F000C4010E941320082FC4010E94F11F182F20
:10520000C4010E94CF1FF1CFEF81F885838110E0A8
:1052100000E041E554E254C0AD81BE8111968C910D
:10522000883048F4833008F441C0835010E000E037
:105230004CE45CE145C0883049F0893009F091CFF9
:1052400010E109E080E043EA5FE13AC010E100E0EC
:1052500080E042E35FE134C0EB81FC81808110E0BB
:1052600000E045E352E22CC0A981BA818C9110E0A4
:1052700000E04BEE51E224C09181892F880F890F05
:10528000923010F4908101C090E0890F10E000E0AE
:105290004DEE50E215C000E02FEE3BE149ED50E24B
:1052A00045C02CED3BE141EB50E240C009E010E08D
:1052B0004BEE52E205C000E080E010E043E856E229
:1052C000612F110F770B6E0D711DE7FC7A95002E83
:1052D000000C110B282FC8018F0D911DF7FC9A951A
:1052E0000E94692D3ECF00E027E13CE14BE354E210
:1052F0001DC010E000E080E046E656E2E1CF10E09D
:1053000000E080E045E756E2DBCF10E000E080E01F
:1053100041E350E2D5CF00E02BE23CE14FE754E21D
:1053200005C000E021E03CE145E254E26E2DEE0CC8
:10533000770BE12C8F2DFF0C990B0E94EB2D11CFD9
:10534000DC0111967C936E9385E0869F9001879F88
:10535000300D1124F901E155FA4EE4911396EC93C6
:105360001397F901E355FA4EE4911496EC931497D0
:1053700012961C920895CF93DF93EC0160E070E0E9
:105380000E94A0291A8219861A861B868881998113
:1053900025E0289FF001299FF00D1124E555FA4ED4
:1053A000E491EE838FEF8D8388E08887DF91CF9142
:1053B0000895FC01DC01AA58BF4F1C9211971C9262
:1053C000139681E08C9311971C92139682E08C9334
:1053D00011971C92118A128A138A8DE0848B138E86
:1053E000158AEC58FF4F84E080830895FC01E85A49
:1053F000FF4F21E02187B3961082319628EC20835D
:10540000369610827897138210820480F581E02D01
:1054100082E0828384E18083FB0180898150808BDC
:105420000895CF93DF9300D000D000D0CDB7DEB782
:10543000DC018D919C91119725E0289FA001299F67
:10544000500D1124FA01E555FA4E2491FA01E45564
:10545000FA4E44911296EC911297F0E0EA57FA4E08
:10546000E49114968C91481B4E1B30E03A832983BB
:10547000042E000C550B5C834B833A815C8167E002
:105480007BE080E090E026960FB6F894DEBF0FBE7A
:10549000CDBFDF91CF910895DC018D919C91119743
:1054A000019611969C938E9345E0489F9001499FE9
:1054B000300D1124F901E155FA4EE4911396EC9365
:1054C0001397F901E355FA4EE4911496EC9308957D
:1054D000DC018D919C911197019711969C938E936D
:1054E00045E0489F9001499F300D1124F901E15595
:1054F000FA4EE4911396EC931397F901E355FA4EA3
:10550000E4911496EC9308953FB7F8948091520675
:1055100090915306A0915406B091550626B5A89BCC
:1055200005C02F3F19F00196A11DB11D3FBFBA2F35
:10553000A92F982F8827820F911DA11DB11DBC0195
:10554000CD0142E0660F771F881F991F4A95D1F75A
:1055500008951F920F920FB60F9211242F933F932D
:105560008F939F93AF93BF9380914D0290914E0282
:10557000A0914F02B09150023091510623E0230FC9
:105580002D3720F40196A11DB11D05C026E8230F7B
:105590000296A11DB11D2093510680934D02909358
:1055A0004E02A0934F02B093500280915206909108
:1055B0005306A0915406B09155060196A11DB11D48
:1055C0008093520690935306A0935406B0935506C9
:1055D000BF91AF919F918F913F912F910F900FBEEF
:1055E0000F901F9018954F925F927F928F929F928B
:1055F000AF92BF92CF92DF92EF92FF920F931F93E1
:10560000CF93DF9300D000D0CDB7DEB7DC014801E7
:105610004115510509F406C2FA01F49031968491BE
:105620004E5F5F4FAF2CB12C211102C0EE2061F113
:1056300001E010E0982F977011F400E010E0982F2F
:10564000969596959695090F111D0A9DF0010B9D53
:10565000F00D1A9DF00D112413E0712EC71003C038
:10566000EE0FFF1F0AC08114910439F0EE9E8001F5
:10567000EF9E100D1124800E911E2E9F80012F9FF2
:10568000100D1124400F511F1FEFC11208C08114CB
:10569000910419F0CC24C39402C022E0C22EFD0173
:1056A000EA0DFB1D1E161F060CF0BCC1A038B1058B
:1056B0000CF0B8C19B01280F311D121613060CF017
:1056C000B1C1603471050CF0ADC14115510509F44B
:1056D000A9C1362F37708B0177FF02C0095F1F4FBA
:1056E00093E0159507959A95E1F7202F77FF04C071
:1056F000332311F02FEF200FB7FF05C0002711272C
:105700000A1B1B0B02C000E010E0E038F1051CF0A2
:1057100090E89A1B01C09F2D901B622F022E000C57
:10572000770B2F3F1CF4E62EE09401C0E12CF1E052
:10573000E82FE77009F4F0E0869586958695F80FD6
:105740006F0F711D6930710514F0F8E0F21BFE193E
:105750002E0D60E82603A00DB11D1124A00FB11F6E
:10576000FE9C000D111D1124400F511F61E070E0DF
:105770007B01032E02C0EE0CFF1C0A94E2F773E0DB
:10578000C71609F407C17C15C8F081E0C81609F4F2
:10579000B9C0E2E0CE1246C18FEF8E9D80018F9D91
:1057A000100D1124009510951C830B839C80BD0166
:1057B0006F5A7D4F2B018F2E820E2DC06AEF762EF1
:1057C000C71409F43BC01BEFC1122CC1BD016F5AB5
:1057D0007D4F4B01DF2ED20E83C084918E9D6001E0
:1057E0008F9DD00C1124DA82C98227FD05C0DB0110
:1057F0008C918023C82ACC92311113C031966F5FEF
:105800007F4F8E2F841B891740F32F5F4A0D5B1D3E
:10581000B0E84B0E511C281509F404C1B201FA017D
:10582000F0CF27305CF76B01B0E8CB0ED11CD6016E
:105830008C9189217A8087298C93E0CFBD016F5AA2
:105840007D4F4B01DF2ED20E2D1509F4EBC0B401B4
:10585000FA018E2F841B8917F0F484918E9D8001AC
:105860008F9D100D11241A83098327FD04C0DB01CD
:105870008C91082B0C93332351F0273044F48B0187
:1058800000581F4FD801CC908A818C298C93319677
:105890006F5F7F4FDECF2F5F4A0D5B1DB0E88B0E31
:1058A000911CD2CF84918E9DB0018F9D700D1124DB
:1058B0007A83698327FD05C06095D8018C916823A0
:1058C0006C93311113C031960F5F1F4F8E2F841BC5
:1058D000891740F32F5F4A0D5B1DB0E88B0E911CBA
:1058E0002D1509F49FC08401FA01F0CF27305CF731
:1058F000B80160587F4F8A818095DB01CC908C2164
:105900008C93E1CF080D191DAF5ABD4F7F2E720E3B
:10591000271509F487C0BD01C12CD12CC91690F5FB
:10592000F801EC0DFD1DE491EE9D4001EF9D900C02
:105930001124809490949C828B82FA01EC0DFD1DC1
:10594000E491EE9D2001EF9D500C11245A82498272
:1059500027FD05C0FB01808188224828408233232F
:1059600059F027304CF4FB01E058FF4F90808C81B8
:1059700089219A8089298083FFEFCF1ADF0A6F5F20
:105980007F4FCCCF2F5F4A0D5B1D0A0D1B1DA0580A
:10599000BF4FBECFC92ED12C2801440E551EAF5A81
:1059A000BD4F60E870E04B018C189D08AC18BD0835
:1059B000AA0CBB1CC92E022F192F2F2FF201A401F4
:1059C000B501732ECF93DF93ED01EF96EF962296FC
:1059D0008590A590772059F08E9C4001AE9C500197
:1059E00007302CF4D880B094DB20D928D99200233A
:1059F0003AF0DC90A094DA20D828DD920C94012DA6
:105A000011961A9529F72A9551F01C2D039511240A
:105A1000E60FF11DA40FB11DC40FD11DD9CFDF9129
:105A2000CF9111240F900F900F900F90DF91CF9195
:105A30001F910F91FF90EF90DF90CF90BF90AF90AC
:105A40009F908F907F905F904F900895809158061F
:105A500008950895FC01DB0183E050968C935097E4
:105A60001F961C921E921E9781E051968C9351971F
:105A700053961C9286E29DE29093570680935606B9
:105A800084E0838B148A158A128A08950895FC0194
:105A9000DB0118968C911897809517969C91179713
:105AA000892351F08281882311F08CE782839281CF
:105AB000911105C081E082839281992349F09F5F13
:105AC00092839D3729F462E0CD0145960C943928E4
:105AD0000895CF92EF920F931F933AEFC32EE12CCC
